{
  "_format": "hh-sol-artifact-1",
  "contractName": "SimpleSwap",
  "sourceName": "contracts/SimpleSwap.sol",
  "abi": [
    {
      "inputs": [],
      "stateMutability": "nonpayable",
      "type": "constructor"
    },
    {
      "inputs": [
        {
          "internalType": "address",
          "name": "owner",
          "type": "address"
        }
      ],
      "name": "OwnableInvalidOwner",
      "type": "error"
    },
    {
      "inputs": [
        {
          "internalType": "address",
          "name": "account",
          "type": "address"
        }
      ],
      "name": "OwnableUnauthorizedAccount",
      "type": "error"
    },
    {
      "anonymous": false,
      "inputs": [
        {
          "indexed": true,
          "internalType": "address",
          "name": "from",
          "type": "address"
        },
        {
          "indexed": true,
          "internalType": "address",
          "name": "to",
          "type": "address"
        },
        {
          "indexed": false,
          "internalType": "address",
          "name": "tokenA",
          "type": "address"
        },
        {
          "indexed": false,
          "internalType": "address",
          "name": "tokenB",
          "type": "address"
        },
        {
          "indexed": false,
          "internalType": "uint256",
          "name": "amountA",
          "type": "uint256"
        },
        {
          "indexed": false,
          "internalType": "uint256",
          "name": "amountB",
          "type": "uint256"
        },
        {
          "indexed": false,
          "internalType": "uint256",
          "name": "liquidity",
          "type": "uint256"
        }
      ],
      "name": "AddLiquidity",
      "type": "event"
    },
    {
      "anonymous": false,
      "inputs": [
        {
          "indexed": true,
          "internalType": "address",
          "name": "previousOwner",
          "type": "address"
        },
        {
          "indexed": true,
          "internalType": "address",
          "name": "newOwner",
          "type": "address"
        }
      ],
      "name": "OwnershipTransferred",
      "type": "event"
    },
    {
      "anonymous": false,
      "inputs": [
        {
          "indexed": true,
          "internalType": "address",
          "name": "from",
          "type": "address"
        },
        {
          "indexed": true,
          "internalType": "address",
          "name": "to",
          "type": "address"
        },
        {
          "indexed": false,
          "internalType": "address",
          "name": "tokenA",
          "type": "address"
        },
        {
          "indexed": false,
          "internalType": "address",
          "name": "tokenB",
          "type": "address"
        },
        {
          "indexed": false,
          "internalType": "uint256",
          "name": "amountA",
          "type": "uint256"
        },
        {
          "indexed": false,
          "internalType": "uint256",
          "name": "amountB",
          "type": "uint256"
        }
      ],
      "name": "RemoveLiquidity",
      "type": "event"
    },
    {
      "anonymous": false,
      "inputs": [
        {
          "indexed": true,
          "internalType": "address",
          "name": "from",
          "type": "address"
        },
        {
          "indexed": true,
          "internalType": "address",
          "name": "to",
          "type": "address"
        },
        {
          "indexed": false,
          "internalType": "address",
          "name": "tokenA",
          "type": "address"
        },
        {
          "indexed": false,
          "internalType": "address",
          "name": "tokenB",
          "type": "address"
        },
        {
          "indexed": false,
          "internalType": "uint256[]",
          "name": "amounts",
          "type": "uint256[]"
        }
      ],
      "name": "SwapExactTokensForTokens",
      "type": "event"
    },
    {
      "inputs": [
        {
          "internalType": "address",
          "name": "tokenA",
          "type": "address"
        },
        {
          "internalType": "address",
          "name": "tokenB",
          "type": "address"
        },
        {
          "internalType": "uint256",
          "name": "amountADesired",
          "type": "uint256"
        },
        {
          "internalType": "uint256",
          "name": "amountBDesired",
          "type": "uint256"
        },
        {
          "internalType": "uint256",
          "name": "amountAMin",
          "type": "uint256"
        },
        {
          "internalType": "uint256",
          "name": "amountBMin",
          "type": "uint256"
        },
        {
          "internalType": "address",
          "name": "to",
          "type": "address"
        },
        {
          "internalType": "uint256",
          "name": "deadline",
          "type": "uint256"
        }
      ],
      "name": "addLiquidity",
      "outputs": [
        {
          "internalType": "uint256",
          "name": "amountA",
          "type": "uint256"
        },
        {
          "internalType": "uint256",
          "name": "amountB",
          "type": "uint256"
        },
        {
          "internalType": "uint256",
          "name": "liquidity",
          "type": "uint256"
        }
      ],
      "stateMutability": "nonpayable",
      "type": "function"
    },
    {
      "inputs": [
        {
          "internalType": "uint256",
          "name": "amountIn",
          "type": "uint256"
        },
        {
          "internalType": "uint256",
          "name": "reserveIn",
          "type": "uint256"
        },
        {
          "internalType": "uint256",
          "name": "reserveOut",
          "type": "uint256"
        }
      ],
      "name": "getAmountOut",
      "outputs": [
        {
          "internalType": "uint256",
          "name": "amountOut",
          "type": "uint256"
        }
      ],
      "stateMutability": "pure",
      "type": "function"
    },
    {
      "inputs": [
        {
          "internalType": "address",
          "name": "tokenA",
          "type": "address"
        },
        {
          "internalType": "address",
          "name": "tokenB",
          "type": "address"
        }
      ],
      "name": "getPrice",
      "outputs": [
        {
          "internalType": "uint256",
          "name": "price",
          "type": "uint256"
        }
      ],
      "stateMutability": "view",
      "type": "function"
    },
    {
      "inputs": [],
      "name": "owner",
      "outputs": [
        {
          "internalType": "address",
          "name": "",
          "type": "address"
        }
      ],
      "stateMutability": "view",
      "type": "function"
    },
    {
      "inputs": [
        {
          "internalType": "address",
          "name": "tokenA",
          "type": "address"
        },
        {
          "internalType": "address",
          "name": "tokenB",
          "type": "address"
        },
        {
          "internalType": "uint256",
          "name": "liquidity",
          "type": "uint256"
        },
        {
          "internalType": "uint256",
          "name": "amountAMin",
          "type": "uint256"
        },
        {
          "internalType": "uint256",
          "name": "amountBMin",
          "type": "uint256"
        },
        {
          "internalType": "address",
          "name": "to",
          "type": "address"
        },
        {
          "internalType": "uint256",
          "name": "deadline",
          "type": "uint256"
        }
      ],
      "name": "removeLiquidity",
      "outputs": [
        {
          "internalType": "uint256",
          "name": "amountA",
          "type": "uint256"
        },
        {
          "internalType": "uint256",
          "name": "amountB",
          "type": "uint256"
        }
      ],
      "stateMutability": "nonpayable",
      "type": "function"
    },
    {
      "inputs": [],
      "name": "renounceOwnership",
      "outputs": [],
      "stateMutability": "nonpayable",
      "type": "function"
    },
    {
      "inputs": [
        {
          "internalType": "uint256",
          "name": "amountIn",
          "type": "uint256"
        },
        {
          "internalType": "uint256",
          "name": "amountOutMin",
          "type": "uint256"
        },
        {
          "internalType": "address[]",
          "name": "path",
          "type": "address[]"
        },
        {
          "internalType": "address",
          "name": "to",
          "type": "address"
        },
        {
          "internalType": "uint256",
          "name": "deadline",
          "type": "uint256"
        }
      ],
      "name": "swapExactTokensForTokens",
      "outputs": [
        {
          "internalType": "uint256[]",
          "name": "amounts",
          "type": "uint256[]"
        }
      ],
      "stateMutability": "nonpayable",
      "type": "function"
    },
    {
      "inputs": [
        {
          "internalType": "address",
          "name": "newOwner",
          "type": "address"
        }
      ],
      "name": "transferOwnership",
      "outputs": [],
      "stateMutability": "nonpayable",
      "type": "function"
    }
  ],
  "bytecode": "0x608060405234801561001057600080fd5b5033600073ffffffffffffffffffffffffffffffffffffffff168173ffffffffffffffffffffffffffffffffffffffff16036100845760006040517f1e4fbdf700000000000000000000000000000000000000000000000000000000815260040161007b91906101df565b60405180910390fd5b610093816100d760201b60201c565b506100ae6752268c2d0162362560c01b61019b60201b60201c565b6100c867c8022b0f90b7960960c01b61019b60201b60201c565b620f42406011819055506101fa565b60008060009054906101000a900473ffffffffffffffffffffffffffffffffffffffff169050816000806101000a81548173ffffffffffffffffffffffffffffffffffffffff021916908373ffffffffffffffffffffffffffffffffffffffff1602179055508173ffffffffffffffffffffffffffffffffffffffff168173ffffffffffffffffffffffffffffffffffffffff167f8be0079c531659141344cd1fd0a4f28419497f9722a3daafe3b4186f6b6457e060405160405180910390a35050565b50565b600073ffffffffffffffffffffffffffffffffffffffff82169050919050565b60006101c98261019e565b9050919050565b6101d9816101be565b82525050565b60006020820190506101f460008301846101d0565b92915050565b6168cb806102096000396000f3fe608060405234801561001057600080fd5b50600436106100885760003560e01c8063ac41865a1161005b578063ac41865a14610115578063baa2abde14610145578063e8e3370014610176578063f2fde38b146101a857610088565b8063054d50d41461008d57806338ed1739146100bd578063715018a6146100ed5780638da5cb5b146100f7575b600080fd5b6100a760048036038101906100a29190613e63565b6101c4565b6040516100b49190613ec5565b60405180910390f35b6100d760048036038101906100d29190613fa3565b610241565b6040516100e491906140fb565b60405180910390f35b6100f5610d56565b005b6100ff610d6a565b60405161010c919061412c565b60405180910390f35b61012f600480360381019061012a9190614147565b610d93565b60405161013c9190613ec5565b60405180910390f35b61015f600480360381019061015a9190614187565b611174565b60405161016d929190614229565b60405180910390f35b610190600480360381019061018b9190614252565b611cd0565b60405161019f93929190614308565b60405180910390f35b6101c260048036038101906101bd919061433f565b6132c4565b005b60006101da67a86c669d31e1306860c01b61334a565b6101ee67984a186dd90f783c60c01b61334a565b83836101fa919061439b565b828561020691906143cf565b6102109190614440565b905061022667c6b6ac008f5984ad60c01b61334a565b61023a671210f5d1614b864360c01b61334a565b9392505050565b606061025767628ab1fe9a1b67f560c01b61334a565b61026b6713ffe8362705e55860c01b61334a565b61027f675f6ca65b39ae880060c01b61334a565b6102936738e0fa294087141160c01b61334a565b814211156102d6576040517f08c379a00000000000000000000000000000000000000000000000000000000081526004016102cd906144ce565b60405180910390fd5b6102ea6779441306e90e7be760c01b61334a565b6102fe67492bbf858047988560c01b61334a565b61031267ee01e537b80b48bb60c01b61334a565b61032667b7c50600c73f606f60c01b61334a565b8484600181811061033a576103396144ee565b5b905060200201602081019061034f919061433f565b73ffffffffffffffffffffffffffffffffffffffff1685856000818110610379576103786144ee565b5b905060200201602081019061038e919061433f565b73ffffffffffffffffffffffffffffffffffffffff16036103e4576040517f08c379a00000000000000000000000000000000000000000000000000000000081526004016103db90614569565b60405180910390fd5b6103f86703505176dd53e55260c01b61334a565b61040c670431931413915fd360c01b61334a565b848460008181106104205761041f6144ee565b5b9050602002016020810190610435919061433f565b600660000160006101000a81548173ffffffffffffffffffffffffffffffffffffffff021916908373ffffffffffffffffffffffffffffffffffffffff16021790555061048c67fbbf299f44b67ce960c01b61334a565b848460018181106104a05761049f6144ee565b5b90506020020160208101906104b5919061433f565b600660010160006101000a81548173ffffffffffffffffffffffffffffffffffffffff021916908373ffffffffffffffffffffffffffffffffffffffff16021790555061050c673e375f144505e07c60c01b61334a565b600660000160009054906101000a900473ffffffffffffffffffffffffffffffffffffffff1660601b600660020160006101000a81548173ffffffffffffffffffffffffffffffffffffffff021916908360601c021790555061057967a444f77e74fd6ada60c01b61334a565b600660010160009054906101000a900473ffffffffffffffffffffffffffffffffffffffff1660601b600660030160006101000a81548173ffffffffffffffffffffffffffffffffffffffff021916908360601c02179055506105e66768030c19adbfe3dc60c01b61334a565b6105fa6709502e199b1a95b260c01b61334a565b606061061067627c5f981ee975ac60c01b61334a565b61063e600660020160009054906101000a900460601b600660030160009054906101000a900460601b61334d565b905061065467be5169a08f49021860c01b61334a565b61066867cd59dbf555e72c8c60c01b61334a565b61067c676e24c7a621e8b06760c01b61334a565b60058160405161068c91906145fa565b908152602001604051809103902060009054906101000a900460ff166106e7576040517f08c379a00000000000000000000000000000000000000000000000000000000081526004016106de9061465d565b60405180910390fd5b6106fb67c33d0178686132d760c01b61334a565b61070f67b70608a0b6fee3ef60c01b61334a565b61072367c1ce0152dc1e9db660c01b61334a565b600061077a89600660000160009054906101000a900473ffffffffffffffffffffffffffffffffffffffff16600660010160009054906101000a900473ffffffffffffffffffffffffffffffffffffffff16613454565b905061079067e73cd547ea60b10d60c01b61334a565b6107a46763209e0d9dad78a760c01b61334a565b6107b86755ab2ec3d3f92b0c60c01b61334a565b878110156107fb576040517f08c379a00000000000000000000000000000000000000000000000000000000081526004016107f2906146c9565b60405180910390fd5b61080f67c7a02c71eec48e3660c01b61334a565b6108236799e852df7d28b65060c01b61334a565b610837679c5d2f499b49cf5e60c01b61334a565b600061086a600660000160009054906101000a900473ffffffffffffffffffffffffffffffffffffffff1633308d613681565b90506108806707713eb12ba6476660c01b61334a565b6108946718a60577d57038a760c01b61334a565b80610910576108ad677d51fa174225031f60c01b61334a565b6108c1678c2a3df59a2dbea960c01b61334a565b6108d5674000d245222e148c60c01b61334a565b6040517f08c379a000000000000000000000000000000000000000000000000000000000815260040161090790614735565b60405180910390fd5b610924677c56eb5af067f40460c01b61334a565b610938679f85e7bd09a226b460c01b61334a565b61094c676fc964a7f4bbe7e160c01b61334a565b60016000600660010160009054906101000a900473ffffffffffffffffffffffffffffffffffffffff1673ffffffffffffffffffffffffffffffffffffffff1673ffffffffffffffffffffffffffffffffffffffff16815260200190815260200160002060009054906101000a900473ffffffffffffffffffffffffffffffffffffffff1673ffffffffffffffffffffffffffffffffffffffff1663095ea7b330846040518363ffffffff1660e01b8152600401610a0b929190614755565b6020604051808303816000875af1158015610a2a573d6000803e3d6000fd5b505050506040513d601f19601f82011682018060405250810190610a4e91906147b6565b50610a6367f59f742ee89746e960c01b61334a565b610a7767216ce7689a771a2f60c01b61334a565b6000610aaa600660010160009054906101000a900473ffffffffffffffffffffffffffffffffffffffff16308986613681565b9050610ac067deb7d374a9e9ad3d60c01b61334a565b610ad467d8dc211140afeb3660c01b61334a565b80610b5057610aed67c1e3f3f024b2b12460c01b61334a565b610b01679d46de49dd6836eb60c01b61334a565b610b156708f7201d9ad4e3f060c01b61334a565b6040517f08c379a0000000000000000000000000000000000000000000000000000000008152600401610b479061482f565b60405180910390fd5b610b64674bfaeaf28140805260c01b61334a565b610b7867ca2bc63dafc111d660c01b61334a565b610b8c67cc8e43cb11199e4560c01b61334a565b6000600267ffffffffffffffff811115610ba957610ba861484f565b5b604051908082528060200260200182016040528015610bd75781602001602082028036833780820191505090505b509050610bee676909837d96fce5da60c01b61334a565b8b81600081518110610c0357610c026144ee565b5b602002602001018181525050610c2367282c328f1a47fbf060c01b61334a565b8381600181518110610c3857610c376144ee565b5b602002602001018181525050610c5867399ad302e0adfa1360c01b61334a565b610c6c673d4e14a5d22a842260c01b61334a565b8773ffffffffffffffffffffffffffffffffffffffff163373ffffffffffffffffffffffffffffffffffffffff167f3fa5ecfe9c3c927b19080e1704ba05c97fc1bfed17f18bf980357d753653bdbb600660000160009054906101000a900473ffffffffffffffffffffffffffffffffffffffff16600660010160009054906101000a900473ffffffffffffffffffffffffffffffffffffffff168a604051610d179392919061487e565b60405180910390a3610d336797f9b415561add9460c01b61334a565b610d4767f4898590b49efde460c01b61334a565b50505050509695505050505050565b610d5e6137a8565b610d68600061382f565b565b60008060009054906101000a900473ffffffffffffffffffffffffffffffffffffffff16905090565b6000610da967396578ea2904234160c01b61334a565b610dbd6753f69552c0406c3f60c01b61334a565b610dd167d7521f8e306007e260c01b61334a565b610de56720a12508f3016cbf60c01b61334a565b600460008473ffffffffffffffffffffffffffffffffffffffff1673ffffffffffffffffffffffffffffffffffffffff16815260200190815260200160002060009054906101000a900460ff16610e71576040517f08c379a0000000000000000000000000000000000000000000000000000000008152600401610e6890614908565b60405180910390fd5b610e8567ec5450616e46309e60c01b61334a565b610e996718aed8c91a62cb9a60c01b61334a565b610ead6776f0d212d81ac49860c01b61334a565b610ec167ff8594c26f4eb63a60c01b61334a565b600460008373ffffffffffffffffffffffffffffffffffffffff1673ffffffffffffffffffffffffffffffffffffffff16815260200190815260200160002060009054906101000a900460ff16610f4d576040517f08c379a0000000000000000000000000000000000000000000000000000000008152600401610f4490614974565b60405180910390fd5b610f6167b52611e93807f47e60c01b61334a565b610f7567b3a38de4059dfdde60c01b61334a565b600160008473ffffffffffffffffffffffffffffffffffffffff1673ffffffffffffffffffffffffffffffffffffffff16815260200190815260200160002060009054906101000a900473ffffffffffffffffffffffffffffffffffffffff1673ffffffffffffffffffffffffffffffffffffffff166370a08231306040518263ffffffff1660e01b815260040161100d919061412c565b602060405180830381865afa15801561102a573d6000803e3d6000fd5b505050506040513d601f19601f8201168201806040525081019061104e91906149a9565b600160008473ffffffffffffffffffffffffffffffffffffffff1673ffffffffffffffffffffffffffffffffffffffff16815260200190815260200160002060009054906101000a900473ffffffffffffffffffffffffffffffffffffffff1673ffffffffffffffffffffffffffffffffffffffff166370a08231306040518263ffffffff1660e01b81526004016110e6919061412c565b602060405180830381865afa158015611103573d6000803e3d6000fd5b505050506040513d601f19601f8201168201806040525081019061112791906149a9565b670de0b6b3a764000061113a91906143cf565b6111449190614440565b905061115a674b1d49d7618716e760c01b61334a565b61116e6747fcec2561ec5aed60c01b61334a565b92915050565b60008061118b67589fe33aead4c27360c01b61334a565b61119f6734dc23ed99dc429f60c01b61334a565b6111b367bf3ba17781f70ce860c01b61334a565b6111c767cf15d158c3942fac60c01b61334a565b8242111561120a576040517f08c379a0000000000000000000000000000000000000000000000000000000008152600401611201906144ce565b60405180910390fd5b61121e67db93c6f8250c073560c01b61334a565b61123267040e5d128914ef4460c01b61334a565b611246672750df9796c86f9c60c01b61334a565b61125a67ce087d01ae21293a60c01b61334a565b8773ffffffffffffffffffffffffffffffffffffffff168973ffffffffffffffffffffffffffffffffffffffff16036112c8576040517f08c379a00000000000000000000000000000000000000000000000000000000081526004016112bf90614569565b60405180910390fd5b6112dc671462accea36c3e5c60c01b61334a565b6112f067683743430932b15560c01b61334a565b8860601b600660020160006101000a81548173ffffffffffffffffffffffffffffffffffffffff021916908360601c0217905550611338679eb935944ac0c69460c01b61334a565b8760601b600660030160006101000a81548173ffffffffffffffffffffffffffffffffffffffff021916908360601c021790555061138067bbe1c100ebd78b8460c01b61334a565b61139467522b4416d98c8d1260c01b61334a565b60606113aa6712732e943bbb821e60c01b61334a565b6113d8600660020160009054906101000a900460601b600660030160009054906101000a900460601b61334d565b90506113ee67936a164c551095f260c01b61334a565b61140267f59847cded278de160c01b61334a565b61141667652f9bda4bdd22f260c01b61334a565b60058160405161142691906145fa565b908152602001604051809103902060009054906101000a900460ff16611481576040517f08c379a000000000000000000000000000000000000000000000000000000000815260040161147890614a22565b60405180910390fd5b6114956707e0baefdde3082060c01b61334a565b6114a967e78736bfde49a35d60c01b61334a565b6114bd67711d32d9484b197960c01b61334a565b6114d167a7740618fd91b11360c01b61334a565b6003816040516114e191906145fa565b908152602001604051809103902060009054906101000a900473ffffffffffffffffffffffffffffffffffffffff1673ffffffffffffffffffffffffffffffffffffffff166370a08231336040518263ffffffff1660e01b8152600401611548919061412c565b602060405180830381865afa158015611565573d6000803e3d6000fd5b505050506040513d601f19601f8201168201806040525081019061158991906149a9565b8811156115cb576040517f08c379a00000000000000000000000000000000000000000000000000000000081526004016115c290614a8e565b60405180910390fd5b6115df67e96bfe3bc4fc988f60c01b61334a565b6115f367816e810f313968e560c01b61334a565b6115fe888b836138f3565b925061161467cc6bd37fe360e1b860c01b61334a565b6116286732ef8c84d7d71b3f60c01b61334a565b61163c6778fc98cb19e29d8460c01b61334a565b8683101561167f576040517f08c379a000000000000000000000000000000000000000000000000000000000815260040161167690614afa565b60405180910390fd5b611693675c4795d2dd7cf69560c01b61334a565b6116a767957c9836347f562560c01b61334a565b6116b2888a836138f3565b91506116c867a3bc177e5b6a554160c01b61334a565b6116dc6731415b5ab00418bb60c01b61334a565b6116f0670ca1d739c08f380760c01b61334a565b85821015611733576040517f08c379a000000000000000000000000000000000000000000000000000000000815260040161172a906146c9565b60405180910390fd5b6117476765049f10eda1c96c60c01b61334a565b61175b678cd63f26bab3fd2b60c01b61334a565b61176f6757083b7486c8e68d60c01b61334a565b60038160405161177f91906145fa565b908152602001604051809103902060009054906101000a900473ffffffffffffffffffffffffffffffffffffffff1673ffffffffffffffffffffffffffffffffffffffff166379cc6790338a6040518363ffffffff1660e01b81526004016117e8929190614755565b600060405180830381600087803b15801561180257600080fd5b505af1158015611816573d6000803e3d6000fd5b5050505061182e6765b0a3a044c3a70760c01b61334a565b611842675871950454c7790660c01b61334a565b600160008b73ffffffffffffffffffffffffffffffffffffffff1673ffffffffffffffffffffffffffffffffffffffff16815260200190815260200160002060009054906101000a900473ffffffffffffffffffffffffffffffffffffffff1673ffffffffffffffffffffffffffffffffffffffff1663095ea7b330856040518363ffffffff1660e01b81526004016118dc929190614755565b6020604051808303816000875af11580156118fb573d6000803e3d6000fd5b505050506040513d601f19601f8201168201806040525081019061191f91906147b6565b5061193467a3d0f19bb2ceaff860c01b61334a565b611948674a30794d12b5361760c01b61334a565b60006119568b308887613681565b905061196c674b691fc72a0d396c60c01b61334a565b6119806791603c4da58a43c760c01b61334a565b806119fc5761199967f08e73ddc41eacd960c01b61334a565b6119ad6764274ecca9444fb660c01b61334a565b6119c16779d284794e53388660c01b61334a565b6040517f08c379a00000000000000000000000000000000000000000000000000000000081526004016119f390614735565b60405180910390fd5b611a10671eb284fb4c8bc20360c01b61334a565b611a2467f5dad09676d25fe560c01b61334a565b611a3867c94c09274d8ddb6760c01b61334a565b600160008b73ffffffffffffffffffffffffffffffffffffffff1673ffffffffffffffffffffffffffffffffffffffff16815260200190815260200160002060009054906101000a900473ffffffffffffffffffffffffffffffffffffffff1673ffffffffffffffffffffffffffffffffffffffff1663095ea7b330856040518363ffffffff1660e01b8152600401611ad2929190614755565b6020604051808303816000875af1158015611af1573d6000803e3d6000fd5b505050506040513d601f19601f82011682018060405250810190611b1591906147b6565b50611b2a67a47f2f4917cecc9760c01b61334a565b611b3e6752cc368dea1f129160c01b61334a565b6000611b4c8b308987613681565b9050611b6267273edca1f6fdbb5d60c01b61334a565b611b7667dd06c0fe3141ab3e60c01b61334a565b80611bf257611b8f67be72a61ccc46d96d60c01b61334a565b611ba367ebaba09005c68a3e60c01b61334a565b611bb767275ac256258b23c460c01b61334a565b6040517f08c379a0000000000000000000000000000000000000000000000000000000008152600401611be99061482f565b60405180910390fd5b611c0667a814da3864c3a51960c01b61334a565b611c1a6711541b0cce34f18c60c01b61334a565b611c2e6718ee9d685b8c095c60c01b61334a565b8673ffffffffffffffffffffffffffffffffffffffff163373ffffffffffffffffffffffffffffffffffffffff167f25fd06a669e99246a924fd8ed377847953a2e1d1db8d91245c9f200de51769538e8e8989604051611c919493929190614b1a565b60405180910390a3611cad67ae0d696284264f7f60c01b61334a565b611cc1675957b6b6d67345d360c01b61334a565b50505097509795505050505050565b6000806000611ce9672ea7e108aa6fa61860c01b61334a565b611cfd67f91a607abf2497af60c01b61334a565b611d1167ba12c0c1284c2d6e60c01b61334a565b611d2567fd84d6baf8154e0a60c01b61334a565b83421115611d68576040517f08c379a0000000000000000000000000000000000000000000000000000000008152600401611d5f906144ce565b60405180910390fd5b611d7c67520b326119573a2c60c01b61334a565b611d90679a736d0f2030351e60c01b61334a565b611da46766d3175b6c37d0cc60c01b61334a565b611db867a97ec3b36c8d20a860c01b61334a565b8973ffffffffffffffffffffffffffffffffffffffff168b73ffffffffffffffffffffffffffffffffffffffff1603611e26576040517f08c379a0000000000000000000000000000000000000000000000000000000008152600401611e1d90614569565b60405180910390fd5b611e3a679da34a2a0d6eee2360c01b61334a565b611e4e67dd24e36c1b67f8aa60c01b61334a565b8a600660000160006101000a81548173ffffffffffffffffffffffffffffffffffffffff021916908373ffffffffffffffffffffffffffffffffffffffff160217905550611ea66766fb5f14bf0b81f560c01b61334a565b89600660010160006101000a81548173ffffffffffffffffffffffffffffffffffffffff021916908373ffffffffffffffffffffffffffffffffffffffff160217905550611efe677655ee11efb7081660c01b61334a565b611f1267f89655521c07047160c01b61334a565b600460008c73ffffffffffffffffffffffffffffffffffffffff1673ffffffffffffffffffffffffffffffffffffffff16815260200190815260200160002060009054906101000a900460ff1661207a57611f7767ab6de8b1078798d860c01b61334a565b611f8b67cf3f5d14d8dffcac60c01b61334a565b6001600460008d73ffffffffffffffffffffffffffffffffffffffff1673ffffffffffffffffffffffffffffffffffffffff16815260200190815260200160002060006101000a81548160ff021916908315150217905550611ff7675a403799adde1f9260c01b61334a565b8a600160008d73ffffffffffffffffffffffffffffffffffffffff1673ffffffffffffffffffffffffffffffffffffffff16815260200190815260200160002060006101000a81548173ffffffffffffffffffffffffffffffffffffffff021916908373ffffffffffffffffffffffffffffffffffffffff16021790555061208f565b61208e672c5a048b6a2727b360c01b61334a565b5b6120a36783b95b8ce2ef115e60c01b61334a565b6120b767194d38b155092abe60c01b61334a565b600460008b73ffffffffffffffffffffffffffffffffffffffff1673ffffffffffffffffffffffffffffffffffffffff16815260200190815260200160002060009054906101000a900460ff1661221f5761211c675895fec1916fea9160c01b61334a565b612130670f42db41e00f041a60c01b61334a565b6001600460008c73ffffffffffffffffffffffffffffffffffffffff1673ffffffffffffffffffffffffffffffffffffffff16815260200190815260200160002060006101000a81548160ff02191690831515021790555061219c67f21ab16f8eefd17e60c01b61334a565b89600160008c73ffffffffffffffffffffffffffffffffffffffff1673ffffffffffffffffffffffffffffffffffffffff16815260200190815260200160002060006101000a81548173ffffffffffffffffffffffffffffffffffffffff021916908373ffffffffffffffffffffffffffffffffffffffff160217905550612234565b61223367dc051629bc91faf260c01b61334a565b5b612248670da53f28a62e4ae460c01b61334a565b8a60601b600660020160006101000a81548173ffffffffffffffffffffffffffffffffffffffff021916908360601c02179055506122906723d6807ba781e84560c01b61334a565b8960601b600660030160006101000a81548173ffffffffffffffffffffffffffffffffffffffff021916908360601c02179055506122d867b8d47db890bd3c9760c01b61334a565b6122ec67120d4bded790655660c01b61334a565b60606123026738aca9788105a64d60c01b61334a565b612330600660020160009054906101000a900460601b600660030160009054906101000a900460601b61334d565b905061234667535b9ca7755b022f60c01b61334a565b61235a67897ed8a2ea91844c60c01b61334a565b60058160405161236a91906145fa565b908152602001604051809103902060009054906101000a900460ff166124ce5761239e671a4520d7ac65a46860c01b61334a565b6123b26771b1a08e37346c6360c01b61334a565b60016005826040516123c491906145fa565b908152602001604051809103902060006101000a81548160ff0219169083151502179055506123fd671b74360b07730a8e60c01b61334a565b3060405161240a90613e16565b612414919061412c565b604051809103906000f080158015612430573d6000803e3d6000fd5b5060038260405161244191906145fa565b908152602001604051809103902060006101000a81548173ffffffffffffffffffffffffffffffffffffffff021916908373ffffffffffffffffffffffffffffffffffffffff1602179055506124a167aaf950249b81e27f60c01b61334a565b896006600901819055506124bf6753f29c988f7730bd60c01b61334a565b886006600a0181905550612987565b6124e2671facb26d97bac5a360c01b61334a565b6124f6676feedca3e932804f60c01b61334a565b600160008d73ffffffffffffffffffffffffffffffffffffffff1673ffffffffffffffffffffffffffffffffffffffff16815260200190815260200160002060009054906101000a900473ffffffffffffffffffffffffffffffffffffffff1673ffffffffffffffffffffffffffffffffffffffff166370a08231306040518263ffffffff1660e01b815260040161258e919061412c565b602060405180830381865afa1580156125ab573d6000803e3d6000fd5b505050506040513d601f19601f820116820180604052508101906125cf91906149a9565b6006600401819055506125ec672080430963f93fee60c01b61334a565b600160008c73ffffffffffffffffffffffffffffffffffffffff1673ffffffffffffffffffffffffffffffffffffffff16815260200190815260200160002060009054906101000a900473ffffffffffffffffffffffffffffffffffffffff1673ffffffffffffffffffffffffffffffffffffffff166370a08231306040518263ffffffff1660e01b8152600401612684919061412c565b602060405180830381865afa1580156126a1573d6000803e3d6000fd5b505050506040513d601f19601f820116820180604052508101906126c591906149a9565b6006600501819055506126e267db4398967bb7713260c01b61334a565b6126f667211805211890974f60c01b61334a565b600061270d8b600660040154600660050154613ae9565b905061272367b57c3f71a39c0a1660c01b61334a565b61273767d273585d101b6f4960c01b61334a565b8981116128265761275267e41c3fc6496fa33a60c01b61334a565b612766677cc1d404db664c9f60c01b61334a565b61277a679156a5ef46aadea560c01b61334a565b61278e675990807e5e95c7a060c01b61334a565b878110156127d1576040517f08c379a00000000000000000000000000000000000000000000000000000000081526004016127c890614bab565b60405180910390fd5b6127e567ba83d9e8bc6eb7d260c01b61334a565b6127f967356bb1c70a10c1af60c01b61334a565b8a600660090181905550612817678a55c6518c57f93260c01b61334a565b806006600a0181905550612985565b61283a679f82be9aae13cd8260c01b61334a565b61284e67ee2e7e192e30175c60c01b61334a565b6128626795e11691ced973d160c01b61334a565b60006128798b600660050154600660040154613ae9565b905061288f6798fb7037b4ae5d4d60c01b61334a565b6128a3671711d1b297966cb960c01b61334a565b8b8111156128b4576128b3614bcb565b5b6128c86793a2fb81392383e360c01b61334a565b6128dc6724a5f433f788234360c01b61334a565b6128f06727be18c7e6d2e39960c01b61334a565b89811015612933576040517f08c379a000000000000000000000000000000000000000000000000000000000815260040161292a90614c46565b60405180910390fd5b61294767430e3490060a406c60c01b61334a565b61295b670334de22b99a3bb660c01b61334a565b806006600901819055506129796708df5344c6dad48060c01b61334a565b8a6006600a0181905550505b505b61299b67571a1f4264c69b1e60c01b61334a565b6129af678e49fcf1e283358960c01b61334a565b60006129c28d3330600660090154613681565b90506129d8679e537ca65bf0280f60c01b61334a565b6129ec67837f4df97957e10560c01b61334a565b80612a6857612a0567cadf3650f4db4e1060c01b61334a565b612a1967cf8bf51e26708d2360c01b61334a565b612a2d67381707b2954159b460c01b61334a565b6040517f08c379a0000000000000000000000000000000000000000000000000000000008152600401612a5f90614cb2565b60405180910390fd5b612a7c6753c7be00dce162b960c01b61334a565b612a9067beb1103e0531b07d60c01b61334a565b612aa467185b1096950a838860c01b61334a565b6000612ab78d33306006600a0154613681565b9050612acd67172cb63a8033781f60c01b61334a565b612ae167c9acf31e553bed8960c01b61334a565b80612b5d57612afa67bd16110b89f4074c60c01b61334a565b612b0e67d40ced49b4fd0c8e60c01b61334a565b612b22673c01fdabb2f9b46b60c01b61334a565b6040517f08c379a0000000000000000000000000000000000000000000000000000000008152600401612b5490614d1e565b60405180910390fd5b612b7167901424b123e2cb5960c01b61334a565b612b856712d13bf8603c013560c01b61334a565b612b9967b54162af8481812260c01b61334a565b6000600384604051612bab91906145fa565b908152602001604051809103902060009054906101000a900473ffffffffffffffffffffffffffffffffffffffff1673ffffffffffffffffffffffffffffffffffffffff166318160ddd6040518163ffffffff1660e01b8152600401602060405180830381865afa158015612c24573d6000803e3d6000fd5b505050506040513d601f19601f82011682018060405250810190612c4891906149a9565b03612d8357612c616745fa9661fa4f4b4060c01b61334a565b612c7567786e54e3fd993ff860c01b61334a565b612c89670d1127c1904ce66860c01b61334a565b600383604051612c9991906145fa565b908152602001604051809103902060009054906101000a900473ffffffffffffffffffffffffffffffffffffffff1673ffffffffffffffffffffffffffffffffffffffff166340c10f19306011546040518363ffffffff1660e01b8152600401612d04929190614755565b600060405180830381600087803b158015612d1e57600080fd5b505af1158015612d32573d6000803e3d6000fd5b50505050612d4a67e8094785b9d2b44d60c01b61334a565b601154612d6b6006600a0154600660090154612d6691906143cf565b613c65565b612d759190614d3e565b600660080181905550613016565b612d97672f3028bb0b69021960c01b61334a565b612dab67a2c38dc543236b9460c01b61334a565b600660040154600384604051612dc191906145fa565b908152602001604051809103902060009054906101000a900473ffffffffffffffffffffffffffffffffffffffff1673ffffffffffffffffffffffffffffffffffffffff166318160ddd6040518163ffffffff1660e01b8152600401602060405180830381865afa158015612e3a573d6000803e3d6000fd5b505050506040513d601f19601f82011682018060405250810190612e5e91906149a9565b600660090154612e6e91906143cf565b612e789190614440565b6006800181905550612e9467819f3a69a8a4046f60c01b61334a565b600660050154600384604051612eaa91906145fa565b908152602001604051809103902060009054906101000a900473ffffffffffffffffffffffffffffffffffffffff1673ffffffffffffffffffffffffffffffffffffffff166318160ddd6040518163ffffffff1660e01b8152600401602060405180830381865afa158015612f23573d6000803e3d6000fd5b505050506040513d601f19601f82011682018060405250810190612f4791906149a9565b6006600a0154612f5791906143cf565b612f619190614440565b600660070181905550612f7e67c0ba155cc2f324f360c01b61334a565b612f92675df65ae6c5ee7eeb60c01b61334a565b600660070154600680015411612fdd57612fb667d0abdc77599f3ce060c01b61334a565b612fca6763fccb2358c8b5ec60c01b61334a565b6006800154600660080181905550613015565b612ff1676174ada71e41cfa160c01b61334a565b6130056714009a1d10253af860c01b61334a565b6006600701546006600801819055505b5b61302a671048807ed5d8140260c01b61334a565b61303e677cf1e03147d4f84d60c01b61334a565b6130526752a96c787294ceb960c01b61334a565b60006006600801541161309a576040517f08c379a000000000000000000000000000000000000000000000000000000000815260040161309190614a8e565b60405180910390fd5b6130ae670d5900b0dd1227ef60c01b61334a565b6130c267036a9009baa0b14360c01b61334a565b6130d566e2a3ec053588b360c01b61334a565b6003836040516130e591906145fa565b908152602001604051809103902060009054906101000a900473ffffffffffffffffffffffffffffffffffffffff1673ffffffffffffffffffffffffffffffffffffffff166340c10f19896006600801546040518363ffffffff1660e01b8152600401613153929190614755565b600060405180830381600087803b15801561316d57600080fd5b505af1158015613181573d6000803e3d6000fd5b50505050613199675295209918b3354d60c01b61334a565b6131ad67fc1069810d148e2560c01b61334a565b8773ffffffffffffffffffffffffffffffffffffffff163373ffffffffffffffffffffffffffffffffffffffff167f2c44d8394ff4c00656fbe852f8825ff1983b71f9b99207b795a8f3342e8d6ea4600660000160009054906101000a900473ffffffffffffffffffffffffffffffffffffffff16600660010160009054906101000a900473ffffffffffffffffffffffffffffffffffffffff166006600901546006600a015460066008015460405161326b959493929190614d72565b60405180910390a3613287670ad351a581330e9e60c01b61334a565b61329b67ba811a21b8d65a3b60c01b61334a565b6006600901546006600a0154600660080154955095509550505050985098509895505050505050565b6132cc6137a8565b600073ffffffffffffffffffffffffffffffffffffffff168173ffffffffffffffffffffffffffffffffffffffff160361333e5760006040517f1e4fbdf7000000000000000000000000000000000000000000000000000000008152600401613335919061412c565b60405180910390fd5b6133478161382f565b50565b50565b606061336367d18efd8be6481fe960c01b61334a565b61337767d39ad9af793c53a660c01b61334a565b61338b670270f2a42882465760c01b61334a565b816bffffffffffffffffffffffff1916836bffffffffffffffffffffffff191610613401576133c4672d4dddc3be0c71da60c01b61334a565b6133d867ac48f9446b31a77d60c01b61334a565b82826040516020016133eb929190614e12565b604051602081830303815290604052905061344e565b61341567af75977e4a75c13460c01b61334a565b613429670b75058f5ad2657660c01b61334a565b818360405160200161343c929190614e12565b60405160208183030381529060405290505b92915050565b600061346a6750843cec4e18d96060c01b61334a565b61347e67ad8d3da523d981e860c01b61334a565b83600160008573ffffffffffffffffffffffffffffffffffffffff1673ffffffffffffffffffffffffffffffffffffffff16815260200190815260200160002060009054906101000a900473ffffffffffffffffffffffffffffffffffffffff1673ffffffffffffffffffffffffffffffffffffffff166370a08231306040518263ffffffff1660e01b8152600401613517919061412c565b602060405180830381865afa158015613534573d6000803e3d6000fd5b505050506040513d601f19601f8201168201806040525081019061355891906149a9565b613562919061439b565b600160008473ffffffffffffffffffffffffffffffffffffffff1673ffffffffffffffffffffffffffffffffffffffff16815260200190815260200160002060009054906101000a900473ffffffffffffffffffffffffffffffffffffffff1673ffffffffffffffffffffffffffffffffffffffff166370a08231306040518263ffffffff1660e01b81526004016135fa919061412c565b602060405180830381865afa158015613617573d6000803e3d6000fd5b505050506040513d601f19601f8201168201806040525081019061363b91906149a9565b8561364691906143cf565b6136509190614440565b9050613666673cff57f81c6ac14a60c01b61334a565b61367a67eea9dfa61670f06c60c01b61334a565b9392505050565b6000613697672e9e194f81c529b560c01b61334a565b6136ab67ed3355fd54e3d72860c01b61334a565b6136bf67553071ba07e3da5260c01b61334a565b600160008673ffffffffffffffffffffffffffffffffffffffff1673ffffffffffffffffffffffffffffffffffffffff16815260200190815260200160002060009054906101000a900473ffffffffffffffffffffffffffffffffffffffff1673ffffffffffffffffffffffffffffffffffffffff166323b872dd8585856040518463ffffffff1660e01b815260040161375b93929190614e3e565b6020604051808303816000875af115801561377a573d6000803e3d6000fd5b505050506040513d601f19601f8201168201806040525081019061379e91906147b6565b9050949350505050565b6137b0613e02565b73ffffffffffffffffffffffffffffffffffffffff166137ce610d6a565b73ffffffffffffffffffffffffffffffffffffffff161461382d576137f1613e02565b6040517f118cdaa7000000000000000000000000000000000000000000000000000000008152600401613824919061412c565b60405180910390fd5b565b60008060009054906101000a900473ffffffffffffffffffffffffffffffffffffffff169050816000806101000a81548173ffffffffffffffffffffffffffffffffffffffff021916908373ffffffffffffffffffffffffffffffffffffffff1602179055508173ffffffffffffffffffffffffffffffffffffffff168173ffffffffffffffffffffffffffffffffffffffff167f8be0079c531659141344cd1fd0a4f28419497f9722a3daafe3b4186f6b6457e060405160405180910390a35050565b6000613909674d02812d555962c660c01b61334a565b61391d67f2302a80ac30b4f660c01b61334a565b60038260405161392d91906145fa565b908152602001604051809103902060009054906101000a900473ffffffffffffffffffffffffffffffffffffffff1673ffffffffffffffffffffffffffffffffffffffff166318160ddd6040518163ffffffff1660e01b8152600401602060405180830381865afa1580156139a6573d6000803e3d6000fd5b505050506040513d601f19601f820116820180604052508101906139ca91906149a9565b600160008573ffffffffffffffffffffffffffffffffffffffff1673ffffffffffffffffffffffffffffffffffffffff16815260200190815260200160002060009054906101000a900473ffffffffffffffffffffffffffffffffffffffff1673ffffffffffffffffffffffffffffffffffffffff166370a08231306040518263ffffffff1660e01b8152600401613a62919061412c565b602060405180830381865afa158015613a7f573d6000803e3d6000fd5b505050506040513d601f19601f82011682018060405250810190613aa391906149a9565b85613aae91906143cf565b613ab89190614440565b9050613ace6709d8caad4c00ac4460c01b61334a565b613ae267d6d58889f32fb28b60c01b61334a565b9392505050565b6000613aff67b369dfafa062bb0160c01b61334a565b613b1367dff7d1c3935ff0fe60c01b61334a565b613b27675a25672a3c25ba5a60c01b61334a565b613b3b6770e9dfc5aed7ef6d60c01b61334a565b60008411613b7e576040517f08c379a0000000000000000000000000000000000000000000000000000000008152600401613b7590614ec1565b60405180910390fd5b613b92673a8e853c3dad3d0a60c01b61334a565b613ba667cf46d037008df8cf60c01b61334a565b613bba6706d8e7f32275cde660c01b61334a565b613bce67f40f3c61c04bc0dc60c01b61334a565b600083118015613bde5750600082115b613c1d576040517f08c379a0000000000000000000000000000000000000000000000000000000008152600401613c1490614a8e565b60405180910390fd5b613c31677649990d971136f060c01b61334a565b613c4567225da3c8d36f0fc460c01b61334a565b828285613c5291906143cf565b613c5c9190614440565b90509392505050565b600060018211613c7757819050613dfd565b60008290506000600190507001000000000000000000000000000000008210613ca957608082901c9150604081901b90505b680100000000000000008210613cc857604082901c9150602081901b90505b6401000000008210613ce357602082901c9150601081901b90505b620100008210613cfc57601082901c9150600881901b90505b6101008210613d1457600882901c9150600481901b90505b60108210613d2b57600482901c9150600281901b90505b60048210613d3b57600181901b90505b600181600302901c90506001818581613d5757613d56614411565b5b048201901c90506001818581613d7057613d6f614411565b5b048201901c90506001818581613d8957613d88614411565b5b048201901c90506001818581613da257613da1614411565b5b048201901c90506001818581613dbb57613dba614411565b5b048201901c90506001818581613dd457613dd3614411565b5b048201901c9050613df6818581613dee57613ded614411565b5b048211613e0a565b8103925050505b919050565b600033905090565b60008115159050919050565b6119b480614ee283390190565b600080fd5b600080fd5b6000819050919050565b613e4081613e2d565b8114613e4b57600080fd5b50565b600081359050613e5d81613e37565b92915050565b600080600060608486031215613e7c57613e7b613e23565b5b6000613e8a86828701613e4e565b9350506020613e9b86828701613e4e565b9250506040613eac86828701613e4e565b9150509250925092565b613ebf81613e2d565b82525050565b6000602082019050613eda6000830184613eb6565b92915050565b600080fd5b600080fd5b600080fd5b60008083601f840112613f0557613f04613ee0565b5b8235905067ffffffffffffffff811115613f2257613f21613ee5565b5b602083019150836020820283011115613f3e57613f3d613eea565b5b9250929050565b600073ffffffffffffffffffffffffffffffffffffffff82169050919050565b6000613f7082613f45565b9050919050565b613f8081613f65565b8114613f8b57600080fd5b50565b600081359050613f9d81613f77565b92915050565b60008060008060008060a08789031215613fc057613fbf613e23565b5b6000613fce89828a01613e4e565b9650506020613fdf89828a01613e4e565b955050604087013567ffffffffffffffff81111561400057613fff613e28565b5b61400c89828a01613eef565b9450945050606061401f89828a01613f8e565b925050608061403089828a01613e4e565b9150509295509295509295565b600081519050919050565b600082825260208201905092915050565b6000819050602082019050919050565b61407281613e2d565b82525050565b60006140848383614069565b60208301905092915050565b6000602082019050919050565b60006140a88261403d565b6140b28185614048565b93506140bd83614059565b8060005b838110156140ee5781516140d58882614078565b97506140e083614090565b9250506001810190506140c1565b5085935050505092915050565b60006020820190508181036000830152614115818461409d565b905092915050565b61412681613f65565b82525050565b6000602082019050614141600083018461411d565b92915050565b6000806040838503121561415e5761415d613e23565b5b600061416c85828601613f8e565b925050602061417d85828601613f8e565b9150509250929050565b600080600080600080600060e0888a0312156141a6576141a5613e23565b5b60006141b48a828b01613f8e565b97505060206141c58a828b01613f8e565b96505060406141d68a828b01613e4e565b95505060606141e78a828b01613e4e565b94505060806141f88a828b01613e4e565b93505060a06142098a828b01613f8e565b92505060c061421a8a828b01613e4e565b91505092959891949750929550565b600060408201905061423e6000830185613eb6565b61424b6020830184613eb6565b9392505050565b600080600080600080600080610100898b03121561427357614272613e23565b5b60006142818b828c01613f8e565b98505060206142928b828c01613f8e565b97505060406142a38b828c01613e4e565b96505060606142b48b828c01613e4e565b95505060806142c58b828c01613e4e565b94505060a06142d68b828c01613e4e565b93505060c06142e78b828c01613f8e565b92505060e06142f88b828c01613e4e565b9150509295985092959890939650565b600060608201905061431d6000830186613eb6565b61432a6020830185613eb6565b6143376040830184613eb6565b949350505050565b60006020828403121561435557614354613e23565b5b600061436384828501613f8e565b91505092915050565b7f4e487b7100000000000000000000000000000000000000000000000000000000600052601160045260246000fd5b60006143a682613e2d565b91506143b183613e2d565b92508282019050808211156143c9576143c861436c565b5b92915050565b60006143da82613e2d565b91506143e583613e2d565b92508282026143f381613e2d565b9150828204841483151761440a5761440961436c565b5b5092915050565b7f4e487b7100000000000000000000000000000000000000000000000000000000600052601260045260246000fd5b600061444b82613e2d565b915061445683613e2d565b92508261446657614465614411565b5b828204905092915050565b600082825260208201905092915050565b7f444541444c494e455f5041535400000000000000000000000000000000000000600082015250565b60006144b8600d83614471565b91506144c382614482565b602082019050919050565b600060208201905081810360008301526144e7816144ab565b9050919050565b7f4e487b7100000000000000000000000000000000000000000000000000000000600052603260045260246000fd5b7f53414d455f544f4b454e53000000000000000000000000000000000000000000600082015250565b6000614553600b83614471565b915061455e8261451d565b602082019050919050565b6000602082019050818103600083015261458281614546565b9050919050565b600081519050919050565b600081905092915050565b60005b838110156145bd5780820151818401526020810190506145a2565b60008484015250505050565b60006145d482614589565b6145de8185614594565b93506145ee81856020860161459f565b80840191505092915050565b600061460682846145c9565b915081905092915050565b7f4e4f54204120544b5320504f4f4c000000000000000000000000000000000000600082015250565b6000614647600e83614471565b915061465282614611565b602082019050919050565b600060208201905081810360008301526146768161463a565b9050919050565b7f544b425f3c5f4d696e0000000000000000000000000000000000000000000000600082015250565b60006146b3600983614471565b91506146be8261467d565b602082019050919050565b600060208201905081810360008301526146e2816146a6565b9050919050565b7f4641494c5f747261736e665f544b410000000000000000000000000000000000600082015250565b600061471f600f83614471565b915061472a826146e9565b602082019050919050565b6000602082019050818103600083015261474e81614712565b9050919050565b600060408201905061476a600083018561411d565b6147776020830184613eb6565b9392505050565b60008115159050919050565b6147938161477e565b811461479e57600080fd5b50565b6000815190506147b08161478a565b92915050565b6000602082840312156147cc576147cb613e23565b5b60006147da848285016147a1565b91505092915050565b7f4641494c5f747261736e665f544b420000000000000000000000000000000000600082015250565b6000614819600f83614471565b9150614824826147e3565b602082019050919050565b600060208201905081810360008301526148488161480c565b9050919050565b7f4e487b7100000000000000000000000000000000000000000000000000000000600052604160045260246000fd5b6000606082019050614893600083018661411d565b6148a0602083018561411d565b81810360408301526148b2818461409d565b9050949350505050565b7f544b415f6e6f745f56414c494400000000000000000000000000000000000000600082015250565b60006148f2600d83614471565b91506148fd826148bc565b602082019050919050565b60006020820190508181036000830152614921816148e5565b9050919050565b7f544b425f6e6f745f56414c494400000000000000000000000000000000000000600082015250565b600061495e600d83614471565b915061496982614928565b602082019050919050565b6000602082019050818103600083015261498d81614951565b9050919050565b6000815190506149a381613e37565b92915050565b6000602082840312156149bf576149be613e23565b5b60006149cd84828501614994565b91505092915050565b7f4e4f545f415f544b535f504f4f4c000000000000000000000000000000000000600082015250565b6000614a0c600e83614471565b9150614a17826149d6565b602082019050919050565b60006020820190508181036000830152614a3b816149ff565b9050919050565b7f494e535546465f4c495155494449545900000000000000000000000000000000600082015250565b6000614a78601083614471565b9150614a8382614a42565b602082019050919050565b60006020820190508181036000830152614aa781614a6b565b9050919050565b7f544b415f3c5f4d696e0000000000000000000000000000000000000000000000600082015250565b6000614ae4600983614471565b9150614aef82614aae565b602082019050919050565b60006020820190508181036000830152614b1381614ad7565b9050919050565b6000608082019050614b2f600083018761411d565b614b3c602083018661411d565b614b496040830185613eb6565b614b566060830184613eb6565b95945050505050565b7f494e535546465f425f414d4f554e540000000000000000000000000000000000600082015250565b6000614b95600f83614471565b9150614ba082614b5f565b602082019050919050565b60006020820190508181036000830152614bc481614b88565b9050919050565b7f4e487b7100000000000000000000000000000000000000000000000000000000600052600160045260246000fd5b7f494e535546465f415f414d4f554e540000000000000000000000000000000000600082015250565b6000614c30600f83614471565b9150614c3b82614bfa565b602082019050919050565b60006020820190508181036000830152614c5f81614c23565b9050919050565b7f4641494c205452414e534620544f4b454e204100000000000000000000000000600082015250565b6000614c9c601383614471565b9150614ca782614c66565b602082019050919050565b60006020820190508181036000830152614ccb81614c8f565b9050919050565b7f4641494c205452414e534620544f4b454e204200000000000000000000000000600082015250565b6000614d08601383614471565b9150614d1382614cd2565b602082019050919050565b60006020820190508181036000830152614d3781614cfb565b9050919050565b6000614d4982613e2d565b9150614d5483613e2d565b9250828203905081811115614d6c57614d6b61436c565b5b92915050565b600060a082019050614d87600083018861411d565b614d94602083018761411d565b614da16040830186613eb6565b614dae6060830185613eb6565b614dbb6080830184613eb6565b9695505050505050565b60007fffffffffffffffffffffffffffffffffffffffff00000000000000000000000082169050919050565b6000819050919050565b614e0c614e0782614dc5565b614df1565b82525050565b6000614e1e8285614dfb565b601482019150614e2e8284614dfb565b6014820191508190509392505050565b6000606082019050614e53600083018661411d565b614e60602083018561411d565b614e6d6040830184613eb6565b949350505050565b7f494e535546465f414d4f554e545f544b41000000000000000000000000000000600082015250565b6000614eab601183614471565b9150614eb682614e75565b602082019050919050565b60006020820190508181036000830152614eda81614e9e565b905091905056fe608060405234801561001057600080fd5b506040516119b43803806119b48339818101604052810190610032919061028f565b806040518060400160405280600e81526020017f4c6971756964697479546f6b656e0000000000000000000000000000000000008152506040518060400160405280600381526020017f4c544b000000000000000000000000000000000000000000000000000000000081525081600390816100ae919061050c565b5080600490816100be919061050c565b505050600073ffffffffffffffffffffffffffffffffffffffff168173ffffffffffffffffffffffffffffffffffffffff16036101335760006040517f1e4fbdf700000000000000000000000000000000000000000000000000000000815260040161012a91906105ed565b60405180910390fd5b6101428161016360201b60201c565b5061015d674830ced015718eff60c01b61022960201b60201c565b50610608565b6000600560009054906101000a900473ffffffffffffffffffffffffffffffffffffffff16905081600560006101000a81548173ffffffffffffffffffffffffffffffffffffffff021916908373ffffffffffffffffffffffffffffffffffffffff1602179055508173ffffffffffffffffffffffffffffffffffffffff168173ffffffffffffffffffffffffffffffffffffffff167f8be0079c531659141344cd1fd0a4f28419497f9722a3daafe3b4186f6b6457e060405160405180910390a35050565b50565b600080fd5b600073ffffffffffffffffffffffffffffffffffffffff82169050919050565b600061025c82610231565b9050919050565b61026c81610251565b811461027757600080fd5b50565b60008151905061028981610263565b92915050565b6000602082840312156102a5576102a461022c565b5b60006102b38482850161027a565b91505092915050565b600081519050919050565b7f4e487b7100000000000000000000000000000000000000000000000000000000600052604160045260246000fd5b7f4e487b7100000000000000000000000000000000000000000000000000000000600052602260045260246000fd5b6000600282049050600182168061033d57607f821691505b6020821081036103505761034f6102f6565b5b50919050565b60008190508160005260206000209050919050565b60006020601f8301049050919050565b600082821b905092915050565b6000600883026103b87fffffffffffffffffffffffffffffffffffffffffffffffffffffffffffffffff8261037b565b6103c2868361037b565b95508019841693508086168417925050509392505050565b6000819050919050565b6000819050919050565b60006104096104046103ff846103da565b6103e4565b6103da565b9050919050565b6000819050919050565b610423836103ee565b61043761042f82610410565b848454610388565b825550505050565b600090565b61044c61043f565b61045781848461041a565b505050565b5b8181101561047b57610470600082610444565b60018101905061045d565b5050565b601f8211156104c05761049181610356565b61049a8461036b565b810160208510156104a9578190505b6104bd6104b58561036b565b83018261045c565b50505b505050565b600082821c905092915050565b60006104e3600019846008026104c5565b1980831691505092915050565b60006104fc83836104d2565b9150826002028217905092915050565b610515826102bc565b67ffffffffffffffff81111561052e5761052d6102c7565b5b6105388254610325565b61054382828561047f565b600060209050601f8311600181146105765760008415610564578287015190505b61056e85826104f0565b8655506105d6565b601f19841661058486610356565b60005b828110156105ac57848901518255600182019150602085019450602081019050610587565b868310156105c957848901516105c5601f8916826104d2565b8355505b6001600288020188555050505b505050505050565b6105e781610251565b82525050565b600060208201905061060260008301846105de565b92915050565b61139d806106176000396000f3fe608060405234801561001057600080fd5b50600436106100f55760003560e01c806370a082311161009757806395d89b411161006657806395d89b4114610260578063a9059cbb1461027e578063dd62ed3e146102ae578063f2fde38b146102de576100f5565b806370a08231146101ec578063715018a61461021c57806379cc6790146102265780638da5cb5b14610242576100f5565b806323b872dd116100d357806323b872dd14610166578063313ce5671461019657806340c10f19146101b457806342966c68146101d0576100f5565b806306fdde03146100fa578063095ea7b31461011857806318160ddd14610148575b600080fd5b6101026102fa565b60405161010f9190610fc4565b60405180910390f35b610132600480360381019061012d919061107f565b61038c565b60405161013f91906110da565b60405180910390f35b6101506103af565b60405161015d9190611104565b60405180910390f35b610180600480360381019061017b919061111f565b6103b9565b60405161018d91906110da565b60405180910390f35b61019e6103e8565b6040516101ab919061118e565b60405180910390f35b6101ce60048036038101906101c9919061107f565b6103f1565b005b6101ea60048036038101906101e591906111a9565b61046b565b005b610206600480360381019061020191906111d6565b61047f565b6040516102139190611104565b60405180910390f35b6102246104c7565b005b610240600480360381019061023b919061107f565b6104db565b005b61024a610555565b6040516102579190611212565b60405180910390f35b61026861057f565b6040516102759190610fc4565b60405180910390f35b6102986004803603810190610293919061107f565b610611565b6040516102a591906110da565b60405180910390f35b6102c860048036038101906102c3919061122d565b610634565b6040516102d59190611104565b60405180910390f35b6102f860048036038101906102f391906111d6565b6106bb565b005b6060600380546103099061129c565b80601f01602080910402602001604051908101604052809291908181526020018280546103359061129c565b80156103825780601f1061035757610100808354040283529160200191610382565b820191906000526020600020905b81548152906001019060200180831161036557829003601f168201915b5050505050905090565b600080610397610741565b90506103a4818585610749565b600191505092915050565b6000600254905090565b6000806103c4610741565b90506103d185828561075b565b6103dc8585856107f0565b60019150509392505050565b60006012905090565b61040567f22fbcfd04b2bd2460c01b6108e4565b61040d6108e7565b61042167379aa727717dc8d560c01b6108e4565b61043567fd656a0d4662cc7460c01b6108e4565b610449670667b5cb821688d160c01b6108e4565b61045d67a2b9a80e58ab254560c01b6108e4565b610467828261096e565b5050565b61047c610476610741565b826109f0565b50565b60008060008373ffffffffffffffffffffffffffffffffffffffff1673ffffffffffffffffffffffffffffffffffffffff168152602001908152602001600020549050919050565b6104cf6108e7565b6104d96000610a72565b565b6104ef67eba3223e059ed93f60c01b6108e4565b6104f76108e7565b61050b67d3eff84e78c5f6c960c01b6108e4565b61051f67abb1be76594e0a9e60c01b6108e4565b610533679c98e1c15690b0f160c01b6108e4565b61054767ea0aa67c8d8465c760c01b6108e4565b61055182826109f0565b5050565b6000600560009054906101000a900473ffffffffffffffffffffffffffffffffffffffff16905090565b60606004805461058e9061129c565b80601f01602080910402602001604051908101604052809291908181526020018280546105ba9061129c565b80156106075780601f106105dc57610100808354040283529160200191610607565b820191906000526020600020905b8154815290600101906020018083116105ea57829003601f168201915b5050505050905090565b60008061061c610741565b90506106298185856107f0565b600191505092915050565b6000600160008473ffffffffffffffffffffffffffffffffffffffff1673ffffffffffffffffffffffffffffffffffffffff16815260200190815260200160002060008373ffffffffffffffffffffffffffffffffffffffff1673ffffffffffffffffffffffffffffffffffffffff16815260200190815260200160002054905092915050565b6106c36108e7565b600073ffffffffffffffffffffffffffffffffffffffff168173ffffffffffffffffffffffffffffffffffffffff16036107355760006040517f1e4fbdf700000000000000000000000000000000000000000000000000000000815260040161072c9190611212565b60405180910390fd5b61073e81610a72565b50565b600033905090565b6107568383836001610b38565b505050565b60006107678484610634565b90507fffffffffffffffffffffffffffffffffffffffffffffffffffffffffffffffff8110156107ea57818110156107da578281836040517ffb8f41b20000000000000000000000000000000000000000000000000000000081526004016107d1939291906112cd565b60405180910390fd5b6107e984848484036000610b38565b5b50505050565b600073ffffffffffffffffffffffffffffffffffffffff168373ffffffffffffffffffffffffffffffffffffffff16036108625760006040517f96c6fd1e0000000000000000000000000000000000000000000000000000000081526004016108599190611212565b60405180910390fd5b600073ffffffffffffffffffffffffffffffffffffffff168273ffffffffffffffffffffffffffffffffffffffff16036108d45760006040517fec442f050000000000000000000000000000000000000000000000000000000081526004016108cb9190611212565b60405180910390fd5b6108df838383610d0f565b505050565b50565b6108ef610741565b73ffffffffffffffffffffffffffffffffffffffff1661090d610555565b73ffffffffffffffffffffffffffffffffffffffff161461096c57610930610741565b6040517f118cdaa70000000000000000000000000000000000000000000000000000000081526004016109639190611212565b60405180910390fd5b565b600073ffffffffffffffffffffffffffffffffffffffff168273ffffffffffffffffffffffffffffffffffffffff16036109e05760006040517fec442f050000000000000000000000000000000000000000000000000000000081526004016109d79190611212565b60405180910390fd5b6109ec60008383610d0f565b5050565b600073ffffffffffffffffffffffffffffffffffffffff168273ffffffffffffffffffffffffffffffffffffffff1603610a625760006040517f96c6fd1e000000000000000000000000000000000000000000000000000000008152600401610a599190611212565b60405180910390fd5b610a6e82600083610d0f565b5050565b6000600560009054906101000a900473ffffffffffffffffffffffffffffffffffffffff16905081600560006101000a81548173ffffffffffffffffffffffffffffffffffffffff021916908373ffffffffffffffffffffffffffffffffffffffff1602179055508173ffffffffffffffffffffffffffffffffffffffff168173ffffffffffffffffffffffffffffffffffffffff167f8be0079c531659141344cd1fd0a4f28419497f9722a3daafe3b4186f6b6457e060405160405180910390a35050565b600073ffffffffffffffffffffffffffffffffffffffff168473ffffffffffffffffffffffffffffffffffffffff1603610baa5760006040517fe602df05000000000000000000000000000000000000000000000000000000008152600401610ba19190611212565b60405180910390fd5b600073ffffffffffffffffffffffffffffffffffffffff168373ffffffffffffffffffffffffffffffffffffffff1603610c1c5760006040517f94280d62000000000000000000000000000000000000000000000000000000008152600401610c139190611212565b60405180910390fd5b81600160008673ffffffffffffffffffffffffffffffffffffffff1673ffffffffffffffffffffffffffffffffffffffff16815260200190815260200160002060008573ffffffffffffffffffffffffffffffffffffffff1673ffffffffffffffffffffffffffffffffffffffff168152602001908152602001600020819055508015610d09578273ffffffffffffffffffffffffffffffffffffffff168473ffffffffffffffffffffffffffffffffffffffff167f8c5be1e5ebec7d5bd14f71427d1e84f3dd0314c0f7b2291e5b200ac8c7c3b92584604051610d009190611104565b60405180910390a35b50505050565b600073ffffffffffffffffffffffffffffffffffffffff168373ffffffffffffffffffffffffffffffffffffffff1603610d61578060026000828254610d559190611333565b92505081905550610e34565b60008060008573ffffffffffffffffffffffffffffffffffffffff1673ffffffffffffffffffffffffffffffffffffffff16815260200190815260200160002054905081811015610ded578381836040517fe450d38c000000000000000000000000000000000000000000000000000000008152600401610de4939291906112cd565b60405180910390fd5b8181036000808673ffffffffffffffffffffffffffffffffffffffff1673ffffffffffffffffffffffffffffffffffffffff16815260200190815260200160002081905550505b600073ffffffffffffffffffffffffffffffffffffffff168273ffffffffffffffffffffffffffffffffffffffff1603610e7d5780600260008282540392505081905550610eca565b806000808473ffffffffffffffffffffffffffffffffffffffff1673ffffffffffffffffffffffffffffffffffffffff168152602001908152602001600020600082825401925050819055505b8173ffffffffffffffffffffffffffffffffffffffff168373ffffffffffffffffffffffffffffffffffffffff167fddf252ad1be2c89b69c2b068fc378daa952ba7f163c4a11628f55a4df523b3ef83604051610f279190611104565b60405180910390a3505050565b600081519050919050565b600082825260208201905092915050565b60005b83811015610f6e578082015181840152602081019050610f53565b60008484015250505050565b6000601f19601f8301169050919050565b6000610f9682610f34565b610fa08185610f3f565b9350610fb0818560208601610f50565b610fb981610f7a565b840191505092915050565b60006020820190508181036000830152610fde8184610f8b565b905092915050565b600080fd5b600073ffffffffffffffffffffffffffffffffffffffff82169050919050565b600061101682610feb565b9050919050565b6110268161100b565b811461103157600080fd5b50565b6000813590506110438161101d565b92915050565b6000819050919050565b61105c81611049565b811461106757600080fd5b50565b60008135905061107981611053565b92915050565b6000806040838503121561109657611095610fe6565b5b60006110a485828601611034565b92505060206110b58582860161106a565b9150509250929050565b60008115159050919050565b6110d4816110bf565b82525050565b60006020820190506110ef60008301846110cb565b92915050565b6110fe81611049565b82525050565b600060208201905061111960008301846110f5565b92915050565b60008060006060848603121561113857611137610fe6565b5b600061114686828701611034565b935050602061115786828701611034565b92505060406111688682870161106a565b9150509250925092565b600060ff82169050919050565b61118881611172565b82525050565b60006020820190506111a3600083018461117f565b92915050565b6000602082840312156111bf576111be610fe6565b5b60006111cd8482850161106a565b91505092915050565b6000602082840312156111ec576111eb610fe6565b5b60006111fa84828501611034565b91505092915050565b61120c8161100b565b82525050565b60006020820190506112276000830184611203565b92915050565b6000806040838503121561124457611243610fe6565b5b600061125285828601611034565b925050602061126385828601611034565b9150509250929050565b7f4e487b7100000000000000000000000000000000000000000000000000000000600052602260045260246000fd5b600060028204905060018216806112b457607f821691505b6020821081036112c7576112c661126d565b5b50919050565b60006060820190506112e26000830186611203565b6112ef60208301856110f5565b6112fc60408301846110f5565b949350505050565b7f4e487b7100000000000000000000000000000000000000000000000000000000600052601160045260246000fd5b600061133e82611049565b915061134983611049565b925082820190508082111561136157611360611304565b5b9291505056fea26469706673582212202d7fc3ab817e824d92057659000e02de9a86d2098315455a0b0c2db0dd1d766564736f6c634300081c0033a264697066735822122097749879fe4b2fd83c23a1dd0046416021a5fd504f3ce3129527c0ee8fa2c3eb64736f6c634300081c0033",
  "linkReferences": {},
  "deployedLinkReferences": {}
}