{
  "_format": "hh-sol-artifact-1",
  "contractName": "SimpleSwap",
  "sourceName": "contracts/SimpleSwap.sol",
  "abi": [
    {
      "inputs": [],
      "stateMutability": "nonpayable",
      "type": "constructor"
    },
    {
      "inputs": [
        {
          "internalType": "address",
          "name": "owner",
          "type": "address"
        }
      ],
      "name": "OwnableInvalidOwner",
      "type": "error"
    },
    {
      "inputs": [
        {
          "internalType": "address",
          "name": "account",
          "type": "address"
        }
      ],
      "name": "OwnableUnauthorizedAccount",
      "type": "error"
    },
    {
      "anonymous": false,
      "inputs": [
        {
          "indexed": true,
          "internalType": "address",
          "name": "from",
          "type": "address"
        },
        {
          "indexed": true,
          "internalType": "address",
          "name": "to",
          "type": "address"
        },
        {
          "indexed": false,
          "internalType": "address",
          "name": "tokenA",
          "type": "address"
        },
        {
          "indexed": false,
          "internalType": "address",
          "name": "tokenB",
          "type": "address"
        },
        {
          "indexed": false,
          "internalType": "uint256",
          "name": "amountA",
          "type": "uint256"
        },
        {
          "indexed": false,
          "internalType": "uint256",
          "name": "amountB",
          "type": "uint256"
        },
        {
          "indexed": false,
          "internalType": "uint256",
          "name": "liquidity",
          "type": "uint256"
        }
      ],
      "name": "AddLiquidity",
      "type": "event"
    },
    {
      "anonymous": false,
      "inputs": [
        {
          "indexed": true,
          "internalType": "address",
          "name": "previousOwner",
          "type": "address"
        },
        {
          "indexed": true,
          "internalType": "address",
          "name": "newOwner",
          "type": "address"
        }
      ],
      "name": "OwnershipTransferred",
      "type": "event"
    },
    {
      "anonymous": false,
      "inputs": [
        {
          "indexed": true,
          "internalType": "address",
          "name": "from",
          "type": "address"
        },
        {
          "indexed": true,
          "internalType": "address",
          "name": "to",
          "type": "address"
        },
        {
          "indexed": false,
          "internalType": "address",
          "name": "tokenA",
          "type": "address"
        },
        {
          "indexed": false,
          "internalType": "address",
          "name": "tokenB",
          "type": "address"
        },
        {
          "indexed": false,
          "internalType": "uint256",
          "name": "amountA",
          "type": "uint256"
        },
        {
          "indexed": false,
          "internalType": "uint256",
          "name": "amountB",
          "type": "uint256"
        }
      ],
      "name": "RemoveLiquidity",
      "type": "event"
    },
    {
      "anonymous": false,
      "inputs": [
        {
          "indexed": true,
          "internalType": "address",
          "name": "from",
          "type": "address"
        },
        {
          "indexed": true,
          "internalType": "address",
          "name": "to",
          "type": "address"
        },
        {
          "indexed": false,
          "internalType": "address",
          "name": "tokenA",
          "type": "address"
        },
        {
          "indexed": false,
          "internalType": "address",
          "name": "tokenB",
          "type": "address"
        },
        {
          "indexed": false,
          "internalType": "uint256[]",
          "name": "amounts",
          "type": "uint256[]"
        }
      ],
      "name": "SwapExactTokensForTokens",
      "type": "event"
    },
    {
      "inputs": [
        {
          "internalType": "address",
          "name": "tokenA",
          "type": "address"
        },
        {
          "internalType": "address",
          "name": "tokenB",
          "type": "address"
        },
        {
          "internalType": "uint256",
          "name": "amountADesired",
          "type": "uint256"
        },
        {
          "internalType": "uint256",
          "name": "amountBDesired",
          "type": "uint256"
        },
        {
          "internalType": "uint256",
          "name": "amountAMin",
          "type": "uint256"
        },
        {
          "internalType": "uint256",
          "name": "amountBMin",
          "type": "uint256"
        },
        {
          "internalType": "address",
          "name": "to",
          "type": "address"
        },
        {
          "internalType": "uint256",
          "name": "deadline",
          "type": "uint256"
        }
      ],
      "name": "addLiquidity",
      "outputs": [
        {
          "internalType": "uint256",
          "name": "amountA",
          "type": "uint256"
        },
        {
          "internalType": "uint256",
          "name": "amountB",
          "type": "uint256"
        },
        {
          "internalType": "uint256",
          "name": "liquidity",
          "type": "uint256"
        }
      ],
      "stateMutability": "nonpayable",
      "type": "function"
    },
    {
      "inputs": [
        {
          "internalType": "uint256",
          "name": "amountIn",
          "type": "uint256"
        },
        {
          "internalType": "uint256",
          "name": "reserveIn",
          "type": "uint256"
        },
        {
          "internalType": "uint256",
          "name": "reserveOut",
          "type": "uint256"
        }
      ],
      "name": "getAmountOut",
      "outputs": [
        {
          "internalType": "uint256",
          "name": "amountOut",
          "type": "uint256"
        }
      ],
      "stateMutability": "pure",
      "type": "function"
    },
    {
      "inputs": [
        {
          "internalType": "address",
          "name": "tokenA",
          "type": "address"
        },
        {
          "internalType": "address",
          "name": "tokenB",
          "type": "address"
        }
      ],
      "name": "getPrice",
      "outputs": [
        {
          "internalType": "uint256",
          "name": "price",
          "type": "uint256"
        }
      ],
      "stateMutability": "view",
      "type": "function"
    },
    {
      "inputs": [],
      "name": "owner",
      "outputs": [
        {
          "internalType": "address",
          "name": "",
          "type": "address"
        }
      ],
      "stateMutability": "view",
      "type": "function"
    },
    {
      "inputs": [
        {
          "internalType": "address",
          "name": "tokenA",
          "type": "address"
        },
        {
          "internalType": "address",
          "name": "tokenB",
          "type": "address"
        },
        {
          "internalType": "uint256",
          "name": "liquidity",
          "type": "uint256"
        },
        {
          "internalType": "uint256",
          "name": "amountAMin",
          "type": "uint256"
        },
        {
          "internalType": "uint256",
          "name": "amountBMin",
          "type": "uint256"
        },
        {
          "internalType": "address",
          "name": "to",
          "type": "address"
        },
        {
          "internalType": "uint256",
          "name": "deadline",
          "type": "uint256"
        }
      ],
      "name": "removeLiquidity",
      "outputs": [
        {
          "internalType": "uint256",
          "name": "amountA",
          "type": "uint256"
        },
        {
          "internalType": "uint256",
          "name": "amountB",
          "type": "uint256"
        }
      ],
      "stateMutability": "nonpayable",
      "type": "function"
    },
    {
      "inputs": [],
      "name": "renounceOwnership",
      "outputs": [],
      "stateMutability": "nonpayable",
      "type": "function"
    },
    {
      "inputs": [
        {
          "internalType": "uint256",
          "name": "amountIn",
          "type": "uint256"
        },
        {
          "internalType": "uint256",
          "name": "amountOutMin",
          "type": "uint256"
        },
        {
          "internalType": "address[]",
          "name": "path",
          "type": "address[]"
        },
        {
          "internalType": "address",
          "name": "to",
          "type": "address"
        },
        {
          "internalType": "uint256",
          "name": "deadline",
          "type": "uint256"
        }
      ],
      "name": "swapExactTokensForTokens",
      "outputs": [
        {
          "internalType": "uint256[]",
          "name": "amounts",
          "type": "uint256[]"
        }
      ],
      "stateMutability": "nonpayable",
      "type": "function"
    },
    {
      "inputs": [
        {
          "internalType": "address",
          "name": "newOwner",
          "type": "address"
        }
      ],
      "name": "transferOwnership",
      "outputs": [],
      "stateMutability": "nonpayable",
      "type": "function"
    }
  ],
  "bytecode": "0x608060405234801561001057600080fd5b5033600073ffffffffffffffffffffffffffffffffffffffff168173ffffffffffffffffffffffffffffffffffffffff16036100845760006040517f1e4fbdf700000000000000000000000000000000000000000000000000000000815260040161007b91906101a8565b60405180910390fd5b610093816100a360201b60201c565b50620f42406011819055506101c3565b60008060009054906101000a900473ffffffffffffffffffffffffffffffffffffffff169050816000806101000a81548173ffffffffffffffffffffffffffffffffffffffff021916908373ffffffffffffffffffffffffffffffffffffffff1602179055508173ffffffffffffffffffffffffffffffffffffffff168173ffffffffffffffffffffffffffffffffffffffff167f8be0079c531659141344cd1fd0a4f28419497f9722a3daafe3b4186f6b6457e060405160405180910390a35050565b600073ffffffffffffffffffffffffffffffffffffffff82169050919050565b600061019282610167565b9050919050565b6101a281610187565b82525050565b60006020820190506101bd6000830184610199565b92915050565b6153ea806101d26000396000f3fe608060405234801561001057600080fd5b50600436106100885760003560e01c8063ac41865a1161005b578063ac41865a14610115578063baa2abde14610145578063e8e3370014610176578063f2fde38b146101a857610088565b8063054d50d41461008d57806338ed1739146100bd578063715018a6146100ed5780638da5cb5b146100f7575b600080fd5b6100a760048036038101906100a29190612a6a565b6101c4565b6040516100b49190612acc565b60405180910390f35b6100d760048036038101906100d29190612baa565b6101f1565b6040516100e49190612d02565b60405180910390f35b6100f56108f6565b005b6100ff61090a565b60405161010c9190612d33565b60405180910390f35b61012f600480360381019061012a9190612d4e565b610933565b60405161013c9190612acc565b60405180910390f35b61015f600480360381019061015a9190612d8e565b610c24565b60405161016d929190612e30565b60405180910390f35b610190600480360381019061018b9190612e59565b6112f8565b60405161019f93929190612f0f565b60405180910390f35b6101c260048036038101906101bd9190612f46565b6120ff565b005b600083836101d29190612fa2565b82856101de9190612fd6565b6101e89190613047565b90509392505050565b606081421115610236576040517f08c379a000000000000000000000000000000000000000000000000000000000815260040161022d906130d5565b60405180910390fd5b8484600181811061024a576102496130f5565b5b905060200201602081019061025f9190612f46565b73ffffffffffffffffffffffffffffffffffffffff1685856000818110610289576102886130f5565b5b905060200201602081019061029e9190612f46565b73ffffffffffffffffffffffffffffffffffffffff16036102f4576040517f08c379a00000000000000000000000000000000000000000000000000000000081526004016102eb90613170565b60405180910390fd5b84846000818110610308576103076130f5565b5b905060200201602081019061031d9190612f46565b600660000160006101000a81548173ffffffffffffffffffffffffffffffffffffffff021916908373ffffffffffffffffffffffffffffffffffffffff16021790555084846001818110610374576103736130f5565b5b90506020020160208101906103899190612f46565b600660010160006101000a81548173ffffffffffffffffffffffffffffffffffffffff021916908373ffffffffffffffffffffffffffffffffffffffff160217905550600660000160009054906101000a900473ffffffffffffffffffffffffffffffffffffffff1660601b600660020160006101000a81548173ffffffffffffffffffffffffffffffffffffffff021916908360601c0217905550600660010160009054906101000a900473ffffffffffffffffffffffffffffffffffffffff1660601b600660030160006101000a81548173ffffffffffffffffffffffffffffffffffffffff021916908360601c021790555060606104ae600660020160009054906101000a900460601b600660030160009054906101000a900460601b612185565b90506005816040516104c09190613201565b908152602001604051809103902060009054906101000a900460ff1661051b576040517f08c379a000000000000000000000000000000000000000000000000000000000815260040161051290613264565b60405180910390fd5b600061057289600660000160009054906101000a900473ffffffffffffffffffffffffffffffffffffffff16600660010160009054906101000a900473ffffffffffffffffffffffffffffffffffffffff16612200565b9050878110156105b7576040517f08c379a00000000000000000000000000000000000000000000000000000000081526004016105ae906132d0565b60405180910390fd5b60006105ea600660000160009054906101000a900473ffffffffffffffffffffffffffffffffffffffff1633308d6123dd565b90508061062c576040517f08c379a00000000000000000000000000000000000000000000000000000000081526004016106239061333c565b60405180910390fd5b60016000600660010160009054906101000a900473ffffffffffffffffffffffffffffffffffffffff1673ffffffffffffffffffffffffffffffffffffffff1673ffffffffffffffffffffffffffffffffffffffff16815260200190815260200160002060009054906101000a900473ffffffffffffffffffffffffffffffffffffffff1673ffffffffffffffffffffffffffffffffffffffff1663095ea7b330846040518363ffffffff1660e01b81526004016106eb92919061335c565b6020604051808303816000875af115801561070a573d6000803e3d6000fd5b505050506040513d601f19601f8201168201806040525081019061072e91906133bd565b506000610762600660010160009054906101000a900473ffffffffffffffffffffffffffffffffffffffff163089866123dd565b9050806107a4576040517f08c379a000000000000000000000000000000000000000000000000000000000815260040161079b90613436565b60405180910390fd5b6000600267ffffffffffffffff8111156107c1576107c0613456565b5b6040519080825280602002602001820160405280156107ef5781602001602082028036833780820191505090505b5090508b81600081518110610807576108066130f5565b5b6020026020010181815250508381600181518110610828576108276130f5565b5b6020026020010181815250508773ffffffffffffffffffffffffffffffffffffffff163373ffffffffffffffffffffffffffffffffffffffff167f3fa5ecfe9c3c927b19080e1704ba05c97fc1bfed17f18bf980357d753653bdbb600660000160009054906101000a900473ffffffffffffffffffffffffffffffffffffffff16600660010160009054906101000a900473ffffffffffffffffffffffffffffffffffffffff168a6040516108df93929190613485565b60405180910390a350505050509695505050505050565b6108fe6124c8565b610908600061254f565b565b60008060009054906101000a900473ffffffffffffffffffffffffffffffffffffffff16905090565b6000600460008473ffffffffffffffffffffffffffffffffffffffff1673ffffffffffffffffffffffffffffffffffffffff16815260200190815260200160002060009054906101000a900460ff166109c1576040517f08c379a00000000000000000000000000000000000000000000000000000000081526004016109b89061350f565b60405180910390fd5b600460008373ffffffffffffffffffffffffffffffffffffffff1673ffffffffffffffffffffffffffffffffffffffff16815260200190815260200160002060009054906101000a900460ff16610a4d576040517f08c379a0000000000000000000000000000000000000000000000000000000008152600401610a449061357b565b60405180910390fd5b600160008473ffffffffffffffffffffffffffffffffffffffff1673ffffffffffffffffffffffffffffffffffffffff16815260200190815260200160002060009054906101000a900473ffffffffffffffffffffffffffffffffffffffff1673ffffffffffffffffffffffffffffffffffffffff166370a08231306040518263ffffffff1660e01b8152600401610ae59190612d33565b602060405180830381865afa158015610b02573d6000803e3d6000fd5b505050506040513d601f19601f82011682018060405250810190610b2691906135b0565b600160008473ffffffffffffffffffffffffffffffffffffffff1673ffffffffffffffffffffffffffffffffffffffff16815260200190815260200160002060009054906101000a900473ffffffffffffffffffffffffffffffffffffffff1673ffffffffffffffffffffffffffffffffffffffff166370a08231306040518263ffffffff1660e01b8152600401610bbe9190612d33565b602060405180830381865afa158015610bdb573d6000803e3d6000fd5b505050506040513d601f19601f82011682018060405250810190610bff91906135b0565b670de0b6b3a7640000610c129190612fd6565b610c1c9190613047565b905092915050565b60008082421115610c6a576040517f08c379a0000000000000000000000000000000000000000000000000000000008152600401610c61906130d5565b60405180910390fd5b8773ffffffffffffffffffffffffffffffffffffffff168973ffffffffffffffffffffffffffffffffffffffff1603610cd8576040517f08c379a0000000000000000000000000000000000000000000000000000000008152600401610ccf90613170565b60405180910390fd5b8860601b600660020160006101000a81548173ffffffffffffffffffffffffffffffffffffffff021916908360601c02179055508760601b600660030160006101000a81548173ffffffffffffffffffffffffffffffffffffffff021916908360601c02179055506060610d70600660020160009054906101000a900460601b600660030160009054906101000a900460601b612185565b9050600581604051610d829190613201565b908152602001604051809103902060009054906101000a900460ff16610ddd576040517f08c379a0000000000000000000000000000000000000000000000000000000008152600401610dd490613629565b60405180910390fd5b600381604051610ded9190613201565b908152602001604051809103902060009054906101000a900473ffffffffffffffffffffffffffffffffffffffff1673ffffffffffffffffffffffffffffffffffffffff166370a08231336040518263ffffffff1660e01b8152600401610e549190612d33565b602060405180830381865afa158015610e71573d6000803e3d6000fd5b505050506040513d601f19601f82011682018060405250810190610e9591906135b0565b881115610ed7576040517f08c379a0000000000000000000000000000000000000000000000000000000008152600401610ece90613695565b60405180910390fd5b610ee2888b83612613565b925086831015610f27576040517f08c379a0000000000000000000000000000000000000000000000000000000008152600401610f1e90613701565b60405180910390fd5b610f32888a83612613565b915085821015610f77576040517f08c379a0000000000000000000000000000000000000000000000000000000008152600401610f6e906132d0565b60405180910390fd5b600381604051610f879190613201565b908152602001604051809103902060009054906101000a900473ffffffffffffffffffffffffffffffffffffffff1673ffffffffffffffffffffffffffffffffffffffff166379cc6790338a6040518363ffffffff1660e01b8152600401610ff092919061335c565b600060405180830381600087803b15801561100a57600080fd5b505af115801561101e573d6000803e3d6000fd5b50505050600160008b73ffffffffffffffffffffffffffffffffffffffff1673ffffffffffffffffffffffffffffffffffffffff16815260200190815260200160002060009054906101000a900473ffffffffffffffffffffffffffffffffffffffff1673ffffffffffffffffffffffffffffffffffffffff1663095ea7b330856040518363ffffffff1660e01b81526004016110bc92919061335c565b6020604051808303816000875af11580156110db573d6000803e3d6000fd5b505050506040513d601f19601f820116820180604052508101906110ff91906133bd565b50600061110e8b3088876123dd565b905080611150576040517f08c379a00000000000000000000000000000000000000000000000000000000081526004016111479061333c565b60405180910390fd5b600160008b73ffffffffffffffffffffffffffffffffffffffff1673ffffffffffffffffffffffffffffffffffffffff16815260200190815260200160002060009054906101000a900473ffffffffffffffffffffffffffffffffffffffff1673ffffffffffffffffffffffffffffffffffffffff1663095ea7b330856040518363ffffffff1660e01b81526004016111ea92919061335c565b6020604051808303816000875af1158015611209573d6000803e3d6000fd5b505050506040513d601f19601f8201168201806040525081019061122d91906133bd565b50600061123c8b3089876123dd565b90508061127e576040517f08c379a000000000000000000000000000000000000000000000000000000000815260040161127590613436565b60405180910390fd5b8673ffffffffffffffffffffffffffffffffffffffff163373ffffffffffffffffffffffffffffffffffffffff167f25fd06a669e99246a924fd8ed377847953a2e1d1db8d91245c9f200de51769538e8e89896040516112e19493929190613721565b60405180910390a350505097509795505050505050565b600080600083421115611340576040517f08c379a0000000000000000000000000000000000000000000000000000000008152600401611337906130d5565b60405180910390fd5b8973ffffffffffffffffffffffffffffffffffffffff168b73ffffffffffffffffffffffffffffffffffffffff16036113ae576040517f08c379a00000000000000000000000000000000000000000000000000000000081526004016113a590613170565b60405180910390fd5b8a600660000160006101000a81548173ffffffffffffffffffffffffffffffffffffffff021916908373ffffffffffffffffffffffffffffffffffffffff16021790555089600660010160006101000a81548173ffffffffffffffffffffffffffffffffffffffff021916908373ffffffffffffffffffffffffffffffffffffffff160217905550600460008c73ffffffffffffffffffffffffffffffffffffffff1673ffffffffffffffffffffffffffffffffffffffff16815260200190815260200160002060009054906101000a900460ff1661155e576001600460008d73ffffffffffffffffffffffffffffffffffffffff1673ffffffffffffffffffffffffffffffffffffffff16815260200190815260200160002060006101000a81548160ff0219169083151502179055508a600160008d73ffffffffffffffffffffffffffffffffffffffff1673ffffffffffffffffffffffffffffffffffffffff16815260200190815260200160002060006101000a81548173ffffffffffffffffffffffffffffffffffffffff021916908373ffffffffffffffffffffffffffffffffffffffff1602179055505b600460008b73ffffffffffffffffffffffffffffffffffffffff1673ffffffffffffffffffffffffffffffffffffffff16815260200190815260200160002060009054906101000a900460ff16611686576001600460008c73ffffffffffffffffffffffffffffffffffffffff1673ffffffffffffffffffffffffffffffffffffffff16815260200190815260200160002060006101000a81548160ff02191690831515021790555089600160008c73ffffffffffffffffffffffffffffffffffffffff1673ffffffffffffffffffffffffffffffffffffffff16815260200190815260200160002060006101000a81548173ffffffffffffffffffffffffffffffffffffffff021916908373ffffffffffffffffffffffffffffffffffffffff1602179055505b8a60601b600660020160006101000a81548173ffffffffffffffffffffffffffffffffffffffff021916908360601c02179055508960601b600660030160006101000a81548173ffffffffffffffffffffffffffffffffffffffff021916908360601c0217905550606061171e600660020160009054906101000a900460601b600660030160009054906101000a900460601b612185565b90506005816040516117309190613201565b908152602001604051809103902060009054906101000a900460ff166118305760016005826040516117629190613201565b908152602001604051809103902060006101000a81548160ff0219169083151502179055503060405161179490612a1d565b61179e9190612d33565b604051809103906000f0801580156117ba573d6000803e3d6000fd5b506003826040516117cb9190613201565b908152602001604051809103902060006101000a81548173ffffffffffffffffffffffffffffffffffffffff021916908373ffffffffffffffffffffffffffffffffffffffff16021790555089600660090181905550886006600a0181905550611af5565b600160008d73ffffffffffffffffffffffffffffffffffffffff1673ffffffffffffffffffffffffffffffffffffffff16815260200190815260200160002060009054906101000a900473ffffffffffffffffffffffffffffffffffffffff1673ffffffffffffffffffffffffffffffffffffffff166370a08231306040518263ffffffff1660e01b81526004016118c89190612d33565b602060405180830381865afa1580156118e5573d6000803e3d6000fd5b505050506040513d601f19601f8201168201806040525081019061190991906135b0565b600660040181905550600160008c73ffffffffffffffffffffffffffffffffffffffff1673ffffffffffffffffffffffffffffffffffffffff16815260200190815260200160002060009054906101000a900473ffffffffffffffffffffffffffffffffffffffff1673ffffffffffffffffffffffffffffffffffffffff166370a08231306040518263ffffffff1660e01b81526004016119aa9190612d33565b602060405180830381865afa1580156119c7573d6000803e3d6000fd5b505050506040513d601f19601f820116820180604052508101906119eb91906135b0565b6006600501819055506000611a0b8b6006600401546006600501546127b9565b9050898111611a705787811015611a57576040517f08c379a0000000000000000000000000000000000000000000000000000000008152600401611a4e906137b2565b60405180910390fd5b8a600660090181905550806006600a0181905550611af3565b6000611a878b6006600501546006600401546127b9565b90508b811115611a9a57611a996137d2565b5b89811015611add576040517f08c379a0000000000000000000000000000000000000000000000000000000008152600401611ad49061384d565b60405180910390fd5b806006600901819055508a6006600a0181905550505b505b6000611b088d33306006600901546123dd565b905080611b4a576040517f08c379a0000000000000000000000000000000000000000000000000000000008152600401611b41906138b9565b60405180910390fd5b6000611b5d8d33306006600a01546123dd565b905080611b9f576040517f08c379a0000000000000000000000000000000000000000000000000000000008152600401611b9690613925565b60405180910390fd5b6000600384604051611bb19190613201565b908152602001604051809103902060009054906101000a900473ffffffffffffffffffffffffffffffffffffffff1673ffffffffffffffffffffffffffffffffffffffff166318160ddd6040518163ffffffff1660e01b8152600401602060405180830381865afa158015611c2a573d6000803e3d6000fd5b505050506040513d601f19601f82011682018060405250810190611c4e91906135b0565b03611d3957600383604051611c639190613201565b908152602001604051809103902060009054906101000a900473ffffffffffffffffffffffffffffffffffffffff1673ffffffffffffffffffffffffffffffffffffffff166340c10f19306011546040518363ffffffff1660e01b8152600401611cce92919061335c565b600060405180830381600087803b158015611ce857600080fd5b505af1158015611cfc573d6000803e3d6000fd5b50505050601154611d216006600a0154600660090154611d1c9190612fd6565b61286c565b611d2b9190613945565b600660080181905550611f18565b600660040154600384604051611d4f9190613201565b908152602001604051809103902060009054906101000a900473ffffffffffffffffffffffffffffffffffffffff1673ffffffffffffffffffffffffffffffffffffffff166318160ddd6040518163ffffffff1660e01b8152600401602060405180830381865afa158015611dc8573d6000803e3d6000fd5b505050506040513d601f19601f82011682018060405250810190611dec91906135b0565b600660090154611dfc9190612fd6565b611e069190613047565b6006800181905550600660050154600384604051611e249190613201565b908152602001604051809103902060009054906101000a900473ffffffffffffffffffffffffffffffffffffffff1673ffffffffffffffffffffffffffffffffffffffff166318160ddd6040518163ffffffff1660e01b8152600401602060405180830381865afa158015611e9d573d6000803e3d6000fd5b505050506040513d601f19601f82011682018060405250810190611ec191906135b0565b6006600a0154611ed19190612fd6565b611edb9190613047565b600660070181905550600660070154600680015411611f07576006800154600660080181905550611f17565b6006600701546006600801819055505b5b600060066008015411611f60576040517f08c379a0000000000000000000000000000000000000000000000000000000008152600401611f5790613695565b60405180910390fd5b600383604051611f709190613201565b908152602001604051809103902060009054906101000a900473ffffffffffffffffffffffffffffffffffffffff1673ffffffffffffffffffffffffffffffffffffffff166340c10f19896006600801546040518363ffffffff1660e01b8152600401611fde92919061335c565b600060405180830381600087803b158015611ff857600080fd5b505af115801561200c573d6000803e3d6000fd5b505050508773ffffffffffffffffffffffffffffffffffffffff163373ffffffffffffffffffffffffffffffffffffffff167f2c44d8394ff4c00656fbe852f8825ff1983b71f9b99207b795a8f3342e8d6ea4600660000160009054906101000a900473ffffffffffffffffffffffffffffffffffffffff16600660010160009054906101000a900473ffffffffffffffffffffffffffffffffffffffff166006600901546006600a01546006600801546040516120ce959493929190613979565b60405180910390a36006600901546006600a0154600660080154955095509550505050985098509895505050505050565b6121076124c8565b600073ffffffffffffffffffffffffffffffffffffffff168173ffffffffffffffffffffffffffffffffffffffff16036121795760006040517f1e4fbdf70000000000000000000000000000000000000000000000000000000081526004016121709190612d33565b60405180910390fd5b6121828161254f565b50565b6060816bffffffffffffffffffffffff1916836bffffffffffffffffffffffff1916106121d55782826040516020016121bf929190613a19565b60405160208183030381529060405290506121fa565b81836040516020016121e8929190613a19565b60405160208183030381529060405290505b92915050565b600083600160008573ffffffffffffffffffffffffffffffffffffffff1673ffffffffffffffffffffffffffffffffffffffff16815260200190815260200160002060009054906101000a900473ffffffffffffffffffffffffffffffffffffffff1673ffffffffffffffffffffffffffffffffffffffff166370a08231306040518263ffffffff1660e01b815260040161229b9190612d33565b602060405180830381865afa1580156122b8573d6000803e3d6000fd5b505050506040513d601f19601f820116820180604052508101906122dc91906135b0565b6122e69190612fa2565b600160008473ffffffffffffffffffffffffffffffffffffffff1673ffffffffffffffffffffffffffffffffffffffff16815260200190815260200160002060009054906101000a900473ffffffffffffffffffffffffffffffffffffffff1673ffffffffffffffffffffffffffffffffffffffff166370a08231306040518263ffffffff1660e01b815260040161237e9190612d33565b602060405180830381865afa15801561239b573d6000803e3d6000fd5b505050506040513d601f19601f820116820180604052508101906123bf91906135b0565b856123ca9190612fd6565b6123d49190613047565b90509392505050565b6000600160008673ffffffffffffffffffffffffffffffffffffffff1673ffffffffffffffffffffffffffffffffffffffff16815260200190815260200160002060009054906101000a900473ffffffffffffffffffffffffffffffffffffffff1673ffffffffffffffffffffffffffffffffffffffff166323b872dd8585856040518463ffffffff1660e01b815260040161247b93929190613a45565b6020604051808303816000875af115801561249a573d6000803e3d6000fd5b505050506040513d601f19601f820116820180604052508101906124be91906133bd565b9050949350505050565b6124d0612a09565b73ffffffffffffffffffffffffffffffffffffffff166124ee61090a565b73ffffffffffffffffffffffffffffffffffffffff161461254d57612511612a09565b6040517f118cdaa70000000000000000000000000000000000000000000000000000000081526004016125449190612d33565b60405180910390fd5b565b60008060009054906101000a900473ffffffffffffffffffffffffffffffffffffffff169050816000806101000a81548173ffffffffffffffffffffffffffffffffffffffff021916908373ffffffffffffffffffffffffffffffffffffffff1602179055508173ffffffffffffffffffffffffffffffffffffffff168173ffffffffffffffffffffffffffffffffffffffff167f8be0079c531659141344cd1fd0a4f28419497f9722a3daafe3b4186f6b6457e060405160405180910390a35050565b60006003826040516126259190613201565b908152602001604051809103902060009054906101000a900473ffffffffffffffffffffffffffffffffffffffff1673ffffffffffffffffffffffffffffffffffffffff166318160ddd6040518163ffffffff1660e01b8152600401602060405180830381865afa15801561269e573d6000803e3d6000fd5b505050506040513d601f19601f820116820180604052508101906126c291906135b0565b600160008573ffffffffffffffffffffffffffffffffffffffff1673ffffffffffffffffffffffffffffffffffffffff16815260200190815260200160002060009054906101000a900473ffffffffffffffffffffffffffffffffffffffff1673ffffffffffffffffffffffffffffffffffffffff166370a08231306040518263ffffffff1660e01b815260040161275a9190612d33565b602060405180830381865afa158015612777573d6000803e3d6000fd5b505050506040513d601f19601f8201168201806040525081019061279b91906135b0565b856127a69190612fd6565b6127b09190613047565b90509392505050565b60008084116127fd576040517f08c379a00000000000000000000000000000000000000000000000000000000081526004016127f490613ac8565b60405180910390fd5b60008311801561280d5750600082115b61284c576040517f08c379a000000000000000000000000000000000000000000000000000000000815260040161284390613695565b60405180910390fd5b8282856128599190612fd6565b6128639190613047565b90509392505050565b60006001821161287e57819050612a04565b600082905060006001905070010000000000000000000000000000000082106128b057608082901c9150604081901b90505b6801000000000000000082106128cf57604082901c9150602081901b90505b64010000000082106128ea57602082901c9150601081901b90505b62010000821061290357601082901c9150600881901b90505b610100821061291b57600882901c9150600481901b90505b6010821061293257600482901c9150600281901b90505b6004821061294257600181901b90505b600181600302901c9050600181858161295e5761295d613018565b5b048201901c9050600181858161297757612976613018565b5b048201901c905060018185816129905761298f613018565b5b048201901c905060018185816129a9576129a8613018565b5b048201901c905060018185816129c2576129c1613018565b5b048201901c905060018185816129db576129da613018565b5b048201901c90506129fd8185816129f5576129f4613018565b5b048211612a11565b8103925050505b919050565b600033905090565b60008115159050919050565b6118cc80613ae983390190565b600080fd5b600080fd5b6000819050919050565b612a4781612a34565b8114612a5257600080fd5b50565b600081359050612a6481612a3e565b92915050565b600080600060608486031215612a8357612a82612a2a565b5b6000612a9186828701612a55565b9350506020612aa286828701612a55565b9250506040612ab386828701612a55565b9150509250925092565b612ac681612a34565b82525050565b6000602082019050612ae16000830184612abd565b92915050565b600080fd5b600080fd5b600080fd5b60008083601f840112612b0c57612b0b612ae7565b5b8235905067ffffffffffffffff811115612b2957612b28612aec565b5b602083019150836020820283011115612b4557612b44612af1565b5b9250929050565b600073ffffffffffffffffffffffffffffffffffffffff82169050919050565b6000612b7782612b4c565b9050919050565b612b8781612b6c565b8114612b9257600080fd5b50565b600081359050612ba481612b7e565b92915050565b60008060008060008060a08789031215612bc757612bc6612a2a565b5b6000612bd589828a01612a55565b9650506020612be689828a01612a55565b955050604087013567ffffffffffffffff811115612c0757612c06612a2f565b5b612c1389828a01612af6565b94509450506060612c2689828a01612b95565b9250506080612c3789828a01612a55565b9150509295509295509295565b600081519050919050565b600082825260208201905092915050565b6000819050602082019050919050565b612c7981612a34565b82525050565b6000612c8b8383612c70565b60208301905092915050565b6000602082019050919050565b6000612caf82612c44565b612cb98185612c4f565b9350612cc483612c60565b8060005b83811015612cf5578151612cdc8882612c7f565b9750612ce783612c97565b925050600181019050612cc8565b5085935050505092915050565b60006020820190508181036000830152612d1c8184612ca4565b905092915050565b612d2d81612b6c565b82525050565b6000602082019050612d486000830184612d24565b92915050565b60008060408385031215612d6557612d64612a2a565b5b6000612d7385828601612b95565b9250506020612d8485828601612b95565b9150509250929050565b600080600080600080600060e0888a031215612dad57612dac612a2a565b5b6000612dbb8a828b01612b95565b9750506020612dcc8a828b01612b95565b9650506040612ddd8a828b01612a55565b9550506060612dee8a828b01612a55565b9450506080612dff8a828b01612a55565b93505060a0612e108a828b01612b95565b92505060c0612e218a828b01612a55565b91505092959891949750929550565b6000604082019050612e456000830185612abd565b612e526020830184612abd565b9392505050565b600080600080600080600080610100898b031215612e7a57612e79612a2a565b5b6000612e888b828c01612b95565b9850506020612e998b828c01612b95565b9750506040612eaa8b828c01612a55565b9650506060612ebb8b828c01612a55565b9550506080612ecc8b828c01612a55565b94505060a0612edd8b828c01612a55565b93505060c0612eee8b828c01612b95565b92505060e0612eff8b828c01612a55565b9150509295985092959890939650565b6000606082019050612f246000830186612abd565b612f316020830185612abd565b612f3e6040830184612abd565b949350505050565b600060208284031215612f5c57612f5b612a2a565b5b6000612f6a84828501612b95565b91505092915050565b7f4e487b7100000000000000000000000000000000000000000000000000000000600052601160045260246000fd5b6000612fad82612a34565b9150612fb883612a34565b9250828201905080821115612fd057612fcf612f73565b5b92915050565b6000612fe182612a34565b9150612fec83612a34565b9250828202612ffa81612a34565b9150828204841483151761301157613010612f73565b5b5092915050565b7f4e487b7100000000000000000000000000000000000000000000000000000000600052601260045260246000fd5b600061305282612a34565b915061305d83612a34565b92508261306d5761306c613018565b5b828204905092915050565b600082825260208201905092915050565b7f444541444c494e455f5041535400000000000000000000000000000000000000600082015250565b60006130bf600d83613078565b91506130ca82613089565b602082019050919050565b600060208201905081810360008301526130ee816130b2565b9050919050565b7f4e487b7100000000000000000000000000000000000000000000000000000000600052603260045260246000fd5b7f53414d455f544f4b454e53000000000000000000000000000000000000000000600082015250565b600061315a600b83613078565b915061316582613124565b602082019050919050565b600060208201905081810360008301526131898161314d565b9050919050565b600081519050919050565b600081905092915050565b60005b838110156131c45780820151818401526020810190506131a9565b60008484015250505050565b60006131db82613190565b6131e5818561319b565b93506131f58185602086016131a6565b80840191505092915050565b600061320d82846131d0565b915081905092915050565b7f4e4f54204120544b5320504f4f4c000000000000000000000000000000000000600082015250565b600061324e600e83613078565b915061325982613218565b602082019050919050565b6000602082019050818103600083015261327d81613241565b9050919050565b7f544b425f3c5f4d696e0000000000000000000000000000000000000000000000600082015250565b60006132ba600983613078565b91506132c582613284565b602082019050919050565b600060208201905081810360008301526132e9816132ad565b9050919050565b7f4641494c5f747261736e665f544b410000000000000000000000000000000000600082015250565b6000613326600f83613078565b9150613331826132f0565b602082019050919050565b6000602082019050818103600083015261335581613319565b9050919050565b60006040820190506133716000830185612d24565b61337e6020830184612abd565b9392505050565b60008115159050919050565b61339a81613385565b81146133a557600080fd5b50565b6000815190506133b781613391565b92915050565b6000602082840312156133d3576133d2612a2a565b5b60006133e1848285016133a8565b91505092915050565b7f4641494c5f747261736e665f544b420000000000000000000000000000000000600082015250565b6000613420600f83613078565b915061342b826133ea565b602082019050919050565b6000602082019050818103600083015261344f81613413565b9050919050565b7f4e487b7100000000000000000000000000000000000000000000000000000000600052604160045260246000fd5b600060608201905061349a6000830186612d24565b6134a76020830185612d24565b81810360408301526134b98184612ca4565b9050949350505050565b7f544b415f6e6f745f56414c494400000000000000000000000000000000000000600082015250565b60006134f9600d83613078565b9150613504826134c3565b602082019050919050565b60006020820190508181036000830152613528816134ec565b9050919050565b7f544b425f6e6f745f56414c494400000000000000000000000000000000000000600082015250565b6000613565600d83613078565b91506135708261352f565b602082019050919050565b6000602082019050818103600083015261359481613558565b9050919050565b6000815190506135aa81612a3e565b92915050565b6000602082840312156135c6576135c5612a2a565b5b60006135d48482850161359b565b91505092915050565b7f4e4f545f415f544b535f504f4f4c000000000000000000000000000000000000600082015250565b6000613613600e83613078565b915061361e826135dd565b602082019050919050565b6000602082019050818103600083015261364281613606565b9050919050565b7f494e535546465f4c495155494449545900000000000000000000000000000000600082015250565b600061367f601083613078565b915061368a82613649565b602082019050919050565b600060208201905081810360008301526136ae81613672565b9050919050565b7f544b415f3c5f4d696e0000000000000000000000000000000000000000000000600082015250565b60006136eb600983613078565b91506136f6826136b5565b602082019050919050565b6000602082019050818103600083015261371a816136de565b9050919050565b60006080820190506137366000830187612d24565b6137436020830186612d24565b6137506040830185612abd565b61375d6060830184612abd565b95945050505050565b7f494e535546465f425f414d4f554e540000000000000000000000000000000000600082015250565b600061379c600f83613078565b91506137a782613766565b602082019050919050565b600060208201905081810360008301526137cb8161378f565b9050919050565b7f4e487b7100000000000000000000000000000000000000000000000000000000600052600160045260246000fd5b7f494e535546465f415f414d4f554e540000000000000000000000000000000000600082015250565b6000613837600f83613078565b915061384282613801565b602082019050919050565b600060208201905081810360008301526138668161382a565b9050919050565b7f4641494c205452414e534620544f4b454e204100000000000000000000000000600082015250565b60006138a3601383613078565b91506138ae8261386d565b602082019050919050565b600060208201905081810360008301526138d281613896565b9050919050565b7f4641494c205452414e534620544f4b454e204200000000000000000000000000600082015250565b600061390f601383613078565b915061391a826138d9565b602082019050919050565b6000602082019050818103600083015261393e81613902565b9050919050565b600061395082612a34565b915061395b83612a34565b925082820390508181111561397357613972612f73565b5b92915050565b600060a08201905061398e6000830188612d24565b61399b6020830187612d24565b6139a86040830186612abd565b6139b56060830185612abd565b6139c26080830184612abd565b9695505050505050565b60007fffffffffffffffffffffffffffffffffffffffff00000000000000000000000082169050919050565b6000819050919050565b613a13613a0e826139cc565b6139f8565b82525050565b6000613a258285613a02565b601482019150613a358284613a02565b6014820191508190509392505050565b6000606082019050613a5a6000830186612d24565b613a676020830185612d24565b613a746040830184612abd565b949350505050565b7f494e535546465f414d4f554e545f544b41000000000000000000000000000000600082015250565b6000613ab2601183613078565b9150613abd82613a7c565b602082019050919050565b60006020820190508181036000830152613ae181613aa5565b905091905056fe608060405234801561001057600080fd5b506040516118cc3803806118cc83398181016040528101906100329190610272565b806040518060400160405280600e81526020017f4c6971756964697479546f6b656e0000000000000000000000000000000000008152506040518060400160405280600381526020017f4c544b000000000000000000000000000000000000000000000000000000000081525081600390816100ae91906104ef565b5080600490816100be91906104ef565b505050600073ffffffffffffffffffffffffffffffffffffffff168173ffffffffffffffffffffffffffffffffffffffff16036101335760006040517f1e4fbdf700000000000000000000000000000000000000000000000000000000815260040161012a91906105d0565b60405180910390fd5b6101428161014960201b60201c565b50506105eb565b6000600560009054906101000a900473ffffffffffffffffffffffffffffffffffffffff16905081600560006101000a81548173ffffffffffffffffffffffffffffffffffffffff021916908373ffffffffffffffffffffffffffffffffffffffff1602179055508173ffffffffffffffffffffffffffffffffffffffff168173ffffffffffffffffffffffffffffffffffffffff167f8be0079c531659141344cd1fd0a4f28419497f9722a3daafe3b4186f6b6457e060405160405180910390a35050565b600080fd5b600073ffffffffffffffffffffffffffffffffffffffff82169050919050565b600061023f82610214565b9050919050565b61024f81610234565b811461025a57600080fd5b50565b60008151905061026c81610246565b92915050565b6000602082840312156102885761028761020f565b5b60006102968482850161025d565b91505092915050565b600081519050919050565b7f4e487b7100000000000000000000000000000000000000000000000000000000600052604160045260246000fd5b7f4e487b7100000000000000000000000000000000000000000000000000000000600052602260045260246000fd5b6000600282049050600182168061032057607f821691505b602082108103610333576103326102d9565b5b50919050565b60008190508160005260206000209050919050565b60006020601f8301049050919050565b600082821b905092915050565b60006008830261039b7fffffffffffffffffffffffffffffffffffffffffffffffffffffffffffffffff8261035e565b6103a5868361035e565b95508019841693508086168417925050509392505050565b6000819050919050565b6000819050919050565b60006103ec6103e76103e2846103bd565b6103c7565b6103bd565b9050919050565b6000819050919050565b610406836103d1565b61041a610412826103f3565b84845461036b565b825550505050565b600090565b61042f610422565b61043a8184846103fd565b505050565b5b8181101561045e57610453600082610427565b600181019050610440565b5050565b601f8211156104a35761047481610339565b61047d8461034e565b8101602085101561048c578190505b6104a06104988561034e565b83018261043f565b50505b505050565b600082821c905092915050565b60006104c6600019846008026104a8565b1980831691505092915050565b60006104df83836104b5565b9150826002028217905092915050565b6104f88261029f565b67ffffffffffffffff811115610511576105106102aa565b5b61051b8254610308565b610526828285610462565b600060209050601f8311600181146105595760008415610547578287015190505b61055185826104d3565b8655506105b9565b601f19841661056786610339565b60005b8281101561058f5784890151825560018201915060208501945060208101905061056a565b868310156105ac57848901516105a8601f8916826104b5565b8355505b6001600288020188555050505b505050505050565b6105ca81610234565b82525050565b60006020820190506105e560008301846105c1565b92915050565b6112d2806105fa6000396000f3fe608060405234801561001057600080fd5b50600436106100f55760003560e01c806370a082311161009757806395d89b411161006657806395d89b4114610260578063a9059cbb1461027e578063dd62ed3e146102ae578063f2fde38b146102de576100f5565b806370a08231146101ec578063715018a61461021c57806379cc6790146102265780638da5cb5b14610242576100f5565b806323b872dd116100d357806323b872dd14610166578063313ce5671461019657806340c10f19146101b457806342966c68146101d0576100f5565b806306fdde03146100fa578063095ea7b31461011857806318160ddd14610148575b600080fd5b6101026102fa565b60405161010f9190610ef9565b60405180910390f35b610132600480360381019061012d9190610fb4565b61038c565b60405161013f919061100f565b60405180910390f35b6101506103af565b60405161015d9190611039565b60405180910390f35b610180600480360381019061017b9190611054565b6103b9565b60405161018d919061100f565b60405180910390f35b61019e6103e8565b6040516101ab91906110c3565b60405180910390f35b6101ce60048036038101906101c99190610fb4565b6103f1565b005b6101ea60048036038101906101e591906110de565b610407565b005b6102066004803603810190610201919061110b565b61041b565b6040516102139190611039565b60405180910390f35b610224610463565b005b610240600480360381019061023b9190610fb4565b610477565b005b61024a61048d565b6040516102579190611147565b60405180910390f35b6102686104b7565b6040516102759190610ef9565b60405180910390f35b61029860048036038101906102939190610fb4565b610549565b6040516102a5919061100f565b60405180910390f35b6102c860048036038101906102c39190611162565b61056c565b6040516102d59190611039565b60405180910390f35b6102f860048036038101906102f3919061110b565b6105f3565b005b606060038054610309906111d1565b80601f0160208091040260200160405190810160405280929190818152602001828054610335906111d1565b80156103825780601f1061035757610100808354040283529160200191610382565b820191906000526020600020905b81548152906001019060200180831161036557829003601f168201915b5050505050905090565b600080610397610679565b90506103a4818585610681565b600191505092915050565b6000600254905090565b6000806103c4610679565b90506103d1858285610693565b6103dc858585610728565b60019150509392505050565b60006012905090565b6103f961081c565b61040382826108a3565b5050565b610418610412610679565b82610925565b50565b60008060008373ffffffffffffffffffffffffffffffffffffffff1673ffffffffffffffffffffffffffffffffffffffff168152602001908152602001600020549050919050565b61046b61081c565b61047560006109a7565b565b61047f61081c565b6104898282610925565b5050565b6000600560009054906101000a900473ffffffffffffffffffffffffffffffffffffffff16905090565b6060600480546104c6906111d1565b80601f01602080910402602001604051908101604052809291908181526020018280546104f2906111d1565b801561053f5780601f106105145761010080835404028352916020019161053f565b820191906000526020600020905b81548152906001019060200180831161052257829003601f168201915b5050505050905090565b600080610554610679565b9050610561818585610728565b600191505092915050565b6000600160008473ffffffffffffffffffffffffffffffffffffffff1673ffffffffffffffffffffffffffffffffffffffff16815260200190815260200160002060008373ffffffffffffffffffffffffffffffffffffffff1673ffffffffffffffffffffffffffffffffffffffff16815260200190815260200160002054905092915050565b6105fb61081c565b600073ffffffffffffffffffffffffffffffffffffffff168173ffffffffffffffffffffffffffffffffffffffff160361066d5760006040517f1e4fbdf70000000000000000000000000000000000000000000000000000000081526004016106649190611147565b60405180910390fd5b610676816109a7565b50565b600033905090565b61068e8383836001610a6d565b505050565b600061069f848461056c565b90507fffffffffffffffffffffffffffffffffffffffffffffffffffffffffffffffff8110156107225781811015610712578281836040517ffb8f41b200000000000000000000000000000000000000000000000000000000815260040161070993929190611202565b60405180910390fd5b61072184848484036000610a6d565b5b50505050565b600073ffffffffffffffffffffffffffffffffffffffff168373ffffffffffffffffffffffffffffffffffffffff160361079a5760006040517f96c6fd1e0000000000000000000000000000000000000000000000000000000081526004016107919190611147565b60405180910390fd5b600073ffffffffffffffffffffffffffffffffffffffff168273ffffffffffffffffffffffffffffffffffffffff160361080c5760006040517fec442f050000000000000000000000000000000000000000000000000000000081526004016108039190611147565b60405180910390fd5b610817838383610c44565b505050565b610824610679565b73ffffffffffffffffffffffffffffffffffffffff1661084261048d565b73ffffffffffffffffffffffffffffffffffffffff16146108a157610865610679565b6040517f118cdaa70000000000000000000000000000000000000000000000000000000081526004016108989190611147565b60405180910390fd5b565b600073ffffffffffffffffffffffffffffffffffffffff168273ffffffffffffffffffffffffffffffffffffffff16036109155760006040517fec442f0500000000000000000000000000000000000000000000000000000000815260040161090c9190611147565b60405180910390fd5b61092160008383610c44565b5050565b600073ffffffffffffffffffffffffffffffffffffffff168273ffffffffffffffffffffffffffffffffffffffff16036109975760006040517f96c6fd1e00000000000000000000000000000000000000000000000000000000815260040161098e9190611147565b60405180910390fd5b6109a382600083610c44565b5050565b6000600560009054906101000a900473ffffffffffffffffffffffffffffffffffffffff16905081600560006101000a81548173ffffffffffffffffffffffffffffffffffffffff021916908373ffffffffffffffffffffffffffffffffffffffff1602179055508173ffffffffffffffffffffffffffffffffffffffff168173ffffffffffffffffffffffffffffffffffffffff167f8be0079c531659141344cd1fd0a4f28419497f9722a3daafe3b4186f6b6457e060405160405180910390a35050565b600073ffffffffffffffffffffffffffffffffffffffff168473ffffffffffffffffffffffffffffffffffffffff1603610adf5760006040517fe602df05000000000000000000000000000000000000000000000000000000008152600401610ad69190611147565b60405180910390fd5b600073ffffffffffffffffffffffffffffffffffffffff168373ffffffffffffffffffffffffffffffffffffffff1603610b515760006040517f94280d62000000000000000000000000000000000000000000000000000000008152600401610b489190611147565b60405180910390fd5b81600160008673ffffffffffffffffffffffffffffffffffffffff1673ffffffffffffffffffffffffffffffffffffffff16815260200190815260200160002060008573ffffffffffffffffffffffffffffffffffffffff1673ffffffffffffffffffffffffffffffffffffffff168152602001908152602001600020819055508015610c3e578273ffffffffffffffffffffffffffffffffffffffff168473ffffffffffffffffffffffffffffffffffffffff167f8c5be1e5ebec7d5bd14f71427d1e84f3dd0314c0f7b2291e5b200ac8c7c3b92584604051610c359190611039565b60405180910390a35b50505050565b600073ffffffffffffffffffffffffffffffffffffffff168373ffffffffffffffffffffffffffffffffffffffff1603610c96578060026000828254610c8a9190611268565b92505081905550610d69565b60008060008573ffffffffffffffffffffffffffffffffffffffff1673ffffffffffffffffffffffffffffffffffffffff16815260200190815260200160002054905081811015610d22578381836040517fe450d38c000000000000000000000000000000000000000000000000000000008152600401610d1993929190611202565b60405180910390fd5b8181036000808673ffffffffffffffffffffffffffffffffffffffff1673ffffffffffffffffffffffffffffffffffffffff16815260200190815260200160002081905550505b600073ffffffffffffffffffffffffffffffffffffffff168273ffffffffffffffffffffffffffffffffffffffff1603610db25780600260008282540392505081905550610dff565b806000808473ffffffffffffffffffffffffffffffffffffffff1673ffffffffffffffffffffffffffffffffffffffff168152602001908152602001600020600082825401925050819055505b8173ffffffffffffffffffffffffffffffffffffffff168373ffffffffffffffffffffffffffffffffffffffff167fddf252ad1be2c89b69c2b068fc378daa952ba7f163c4a11628f55a4df523b3ef83604051610e5c9190611039565b60405180910390a3505050565b600081519050919050565b600082825260208201905092915050565b60005b83811015610ea3578082015181840152602081019050610e88565b60008484015250505050565b6000601f19601f8301169050919050565b6000610ecb82610e69565b610ed58185610e74565b9350610ee5818560208601610e85565b610eee81610eaf565b840191505092915050565b60006020820190508181036000830152610f138184610ec0565b905092915050565b600080fd5b600073ffffffffffffffffffffffffffffffffffffffff82169050919050565b6000610f4b82610f20565b9050919050565b610f5b81610f40565b8114610f6657600080fd5b50565b600081359050610f7881610f52565b92915050565b6000819050919050565b610f9181610f7e565b8114610f9c57600080fd5b50565b600081359050610fae81610f88565b92915050565b60008060408385031215610fcb57610fca610f1b565b5b6000610fd985828601610f69565b9250506020610fea85828601610f9f565b9150509250929050565b60008115159050919050565b61100981610ff4565b82525050565b60006020820190506110246000830184611000565b92915050565b61103381610f7e565b82525050565b600060208201905061104e600083018461102a565b92915050565b60008060006060848603121561106d5761106c610f1b565b5b600061107b86828701610f69565b935050602061108c86828701610f69565b925050604061109d86828701610f9f565b9150509250925092565b600060ff82169050919050565b6110bd816110a7565b82525050565b60006020820190506110d860008301846110b4565b92915050565b6000602082840312156110f4576110f3610f1b565b5b600061110284828501610f9f565b91505092915050565b60006020828403121561112157611120610f1b565b5b600061112f84828501610f69565b91505092915050565b61114181610f40565b82525050565b600060208201905061115c6000830184611138565b92915050565b6000806040838503121561117957611178610f1b565b5b600061118785828601610f69565b925050602061119885828601610f69565b9150509250929050565b7f4e487b7100000000000000000000000000000000000000000000000000000000600052602260045260246000fd5b600060028204905060018216806111e957607f821691505b6020821081036111fc576111fb6111a2565b5b50919050565b60006060820190506112176000830186611138565b611224602083018561102a565b611231604083018461102a565b949350505050565b7f4e487b7100000000000000000000000000000000000000000000000000000000600052601160045260246000fd5b600061127382610f7e565b915061127e83610f7e565b925082820190508082111561129657611295611239565b5b9291505056fea264697066735822122005fead41893a5e8540f1053918ef086dd182485233354c61ef4f0c31313d64d764736f6c634300081c0033a26469706673582212200729a0398c847e2341589efc52d5a0f51c95808af6c57998b7cbec958eaf881364736f6c634300081c0033",
  "linkReferences": {},
  "deployedLinkReferences": {}
}