{
  "_format": "hh-sol-artifact-1",
  "contractName": "LiquidityToken",
  "sourceName": "contracts/LiquidityToken.sol",
  "abi": [
    {
      "inputs": [
        {
          "internalType": "address",
          "name": "initialOwner",
          "type": "address"
        }
      ],
      "stateMutability": "nonpayable",
      "type": "constructor"
    },
    {
      "inputs": [
        {
          "internalType": "address",
          "name": "spender",
          "type": "address"
        },
        {
          "internalType": "uint256",
          "name": "allowance",
          "type": "uint256"
        },
        {
          "internalType": "uint256",
          "name": "needed",
          "type": "uint256"
        }
      ],
      "name": "ERC20InsufficientAllowance",
      "type": "error"
    },
    {
      "inputs": [
        {
          "internalType": "address",
          "name": "sender",
          "type": "address"
        },
        {
          "internalType": "uint256",
          "name": "balance",
          "type": "uint256"
        },
        {
          "internalType": "uint256",
          "name": "needed",
          "type": "uint256"
        }
      ],
      "name": "ERC20InsufficientBalance",
      "type": "error"
    },
    {
      "inputs": [
        {
          "internalType": "address",
          "name": "approver",
          "type": "address"
        }
      ],
      "name": "ERC20InvalidApprover",
      "type": "error"
    },
    {
      "inputs": [
        {
          "internalType": "address",
          "name": "receiver",
          "type": "address"
        }
      ],
      "name": "ERC20InvalidReceiver",
      "type": "error"
    },
    {
      "inputs": [
        {
          "internalType": "address",
          "name": "sender",
          "type": "address"
        }
      ],
      "name": "ERC20InvalidSender",
      "type": "error"
    },
    {
      "inputs": [
        {
          "internalType": "address",
          "name": "spender",
          "type": "address"
        }
      ],
      "name": "ERC20InvalidSpender",
      "type": "error"
    },
    {
      "inputs": [
        {
          "internalType": "address",
          "name": "owner",
          "type": "address"
        }
      ],
      "name": "OwnableInvalidOwner",
      "type": "error"
    },
    {
      "inputs": [
        {
          "internalType": "address",
          "name": "account",
          "type": "address"
        }
      ],
      "name": "OwnableUnauthorizedAccount",
      "type": "error"
    },
    {
      "anonymous": false,
      "inputs": [
        {
          "indexed": true,
          "internalType": "address",
          "name": "owner",
          "type": "address"
        },
        {
          "indexed": true,
          "internalType": "address",
          "name": "spender",
          "type": "address"
        },
        {
          "indexed": false,
          "internalType": "uint256",
          "name": "value",
          "type": "uint256"
        }
      ],
      "name": "Approval",
      "type": "event"
    },
    {
      "anonymous": false,
      "inputs": [
        {
          "indexed": true,
          "internalType": "address",
          "name": "previousOwner",
          "type": "address"
        },
        {
          "indexed": true,
          "internalType": "address",
          "name": "newOwner",
          "type": "address"
        }
      ],
      "name": "OwnershipTransferred",
      "type": "event"
    },
    {
      "anonymous": false,
      "inputs": [
        {
          "indexed": true,
          "internalType": "address",
          "name": "from",
          "type": "address"
        },
        {
          "indexed": true,
          "internalType": "address",
          "name": "to",
          "type": "address"
        },
        {
          "indexed": false,
          "internalType": "uint256",
          "name": "value",
          "type": "uint256"
        }
      ],
      "name": "Transfer",
      "type": "event"
    },
    {
      "inputs": [
        {
          "internalType": "address",
          "name": "owner",
          "type": "address"
        },
        {
          "internalType": "address",
          "name": "spender",
          "type": "address"
        }
      ],
      "name": "allowance",
      "outputs": [
        {
          "internalType": "uint256",
          "name": "",
          "type": "uint256"
        }
      ],
      "stateMutability": "view",
      "type": "function"
    },
    {
      "inputs": [
        {
          "internalType": "address",
          "name": "spender",
          "type": "address"
        },
        {
          "internalType": "uint256",
          "name": "value",
          "type": "uint256"
        }
      ],
      "name": "approve",
      "outputs": [
        {
          "internalType": "bool",
          "name": "",
          "type": "bool"
        }
      ],
      "stateMutability": "nonpayable",
      "type": "function"
    },
    {
      "inputs": [
        {
          "internalType": "address",
          "name": "account",
          "type": "address"
        }
      ],
      "name": "balanceOf",
      "outputs": [
        {
          "internalType": "uint256",
          "name": "",
          "type": "uint256"
        }
      ],
      "stateMutability": "view",
      "type": "function"
    },
    {
      "inputs": [
        {
          "internalType": "uint256",
          "name": "value",
          "type": "uint256"
        }
      ],
      "name": "burn",
      "outputs": [],
      "stateMutability": "nonpayable",
      "type": "function"
    },
    {
      "inputs": [
        {
          "internalType": "address",
          "name": "account",
          "type": "address"
        },
        {
          "internalType": "uint256",
          "name": "value",
          "type": "uint256"
        }
      ],
      "name": "burnFrom",
      "outputs": [],
      "stateMutability": "nonpayable",
      "type": "function"
    },
    {
      "inputs": [],
      "name": "decimals",
      "outputs": [
        {
          "internalType": "uint8",
          "name": "",
          "type": "uint8"
        }
      ],
      "stateMutability": "view",
      "type": "function"
    },
    {
      "inputs": [
        {
          "internalType": "address",
          "name": "to",
          "type": "address"
        },
        {
          "internalType": "uint256",
          "name": "amount",
          "type": "uint256"
        }
      ],
      "name": "mint",
      "outputs": [],
      "stateMutability": "nonpayable",
      "type": "function"
    },
    {
      "inputs": [],
      "name": "name",
      "outputs": [
        {
          "internalType": "string",
          "name": "",
          "type": "string"
        }
      ],
      "stateMutability": "view",
      "type": "function"
    },
    {
      "inputs": [],
      "name": "owner",
      "outputs": [
        {
          "internalType": "address",
          "name": "",
          "type": "address"
        }
      ],
      "stateMutability": "view",
      "type": "function"
    },
    {
      "inputs": [],
      "name": "renounceOwnership",
      "outputs": [],
      "stateMutability": "nonpayable",
      "type": "function"
    },
    {
      "inputs": [],
      "name": "symbol",
      "outputs": [
        {
          "internalType": "string",
          "name": "",
          "type": "string"
        }
      ],
      "stateMutability": "view",
      "type": "function"
    },
    {
      "inputs": [],
      "name": "totalSupply",
      "outputs": [
        {
          "internalType": "uint256",
          "name": "",
          "type": "uint256"
        }
      ],
      "stateMutability": "view",
      "type": "function"
    },
    {
      "inputs": [
        {
          "internalType": "address",
          "name": "to",
          "type": "address"
        },
        {
          "internalType": "uint256",
          "name": "value",
          "type": "uint256"
        }
      ],
      "name": "transfer",
      "outputs": [
        {
          "internalType": "bool",
          "name": "",
          "type": "bool"
        }
      ],
      "stateMutability": "nonpayable",
      "type": "function"
    },
    {
      "inputs": [
        {
          "internalType": "address",
          "name": "from",
          "type": "address"
        },
        {
          "internalType": "address",
          "name": "to",
          "type": "address"
        },
        {
          "internalType": "uint256",
          "name": "value",
          "type": "uint256"
        }
      ],
      "name": "transferFrom",
      "outputs": [
        {
          "internalType": "bool",
          "name": "",
          "type": "bool"
        }
      ],
      "stateMutability": "nonpayable",
      "type": "function"
    },
    {
      "inputs": [
        {
          "internalType": "address",
          "name": "newOwner",
          "type": "address"
        }
      ],
      "name": "transferOwnership",
      "outputs": [],
      "stateMutability": "nonpayable",
      "type": "function"
    }
  ],
  "bytecode": "0x608060405234801561001057600080fd5b506040516119b43803806119b48339818101604052810190610032919061028f565b806040518060400160405280600e81526020017f4c6971756964697479546f6b656e0000000000000000000000000000000000008152506040518060400160405280600381526020017f4c544b000000000000000000000000000000000000000000000000000000000081525081600390816100ae919061050c565b5080600490816100be919061050c565b505050600073ffffffffffffffffffffffffffffffffffffffff168173ffffffffffffffffffffffffffffffffffffffff16036101335760006040517f1e4fbdf700000000000000000000000000000000000000000000000000000000815260040161012a91906105ed565b60405180910390fd5b6101428161016360201b60201c565b5061015d674830ced015718eff60c01b61022960201b60201c565b50610608565b6000600560009054906101000a900473ffffffffffffffffffffffffffffffffffffffff16905081600560006101000a81548173ffffffffffffffffffffffffffffffffffffffff021916908373ffffffffffffffffffffffffffffffffffffffff1602179055508173ffffffffffffffffffffffffffffffffffffffff168173ffffffffffffffffffffffffffffffffffffffff167f8be0079c531659141344cd1fd0a4f28419497f9722a3daafe3b4186f6b6457e060405160405180910390a35050565b50565b600080fd5b600073ffffffffffffffffffffffffffffffffffffffff82169050919050565b600061025c82610231565b9050919050565b61026c81610251565b811461027757600080fd5b50565b60008151905061028981610263565b92915050565b6000602082840312156102a5576102a461022c565b5b60006102b38482850161027a565b91505092915050565b600081519050919050565b7f4e487b7100000000000000000000000000000000000000000000000000000000600052604160045260246000fd5b7f4e487b7100000000000000000000000000000000000000000000000000000000600052602260045260246000fd5b6000600282049050600182168061033d57607f821691505b6020821081036103505761034f6102f6565b5b50919050565b60008190508160005260206000209050919050565b60006020601f8301049050919050565b600082821b905092915050565b6000600883026103b87fffffffffffffffffffffffffffffffffffffffffffffffffffffffffffffffff8261037b565b6103c2868361037b565b95508019841693508086168417925050509392505050565b6000819050919050565b6000819050919050565b60006104096104046103ff846103da565b6103e4565b6103da565b9050919050565b6000819050919050565b610423836103ee565b61043761042f82610410565b848454610388565b825550505050565b600090565b61044c61043f565b61045781848461041a565b505050565b5b8181101561047b57610470600082610444565b60018101905061045d565b5050565b601f8211156104c05761049181610356565b61049a8461036b565b810160208510156104a9578190505b6104bd6104b58561036b565b83018261045c565b50505b505050565b600082821c905092915050565b60006104e3600019846008026104c5565b1980831691505092915050565b60006104fc83836104d2565b9150826002028217905092915050565b610515826102bc565b67ffffffffffffffff81111561052e5761052d6102c7565b5b6105388254610325565b61054382828561047f565b600060209050601f8311600181146105765760008415610564578287015190505b61056e85826104f0565b8655506105d6565b601f19841661058486610356565b60005b828110156105ac57848901518255600182019150602085019450602081019050610587565b868310156105c957848901516105c5601f8916826104d2565b8355505b6001600288020188555050505b505050505050565b6105e781610251565b82525050565b600060208201905061060260008301846105de565b92915050565b61139d806106176000396000f3fe608060405234801561001057600080fd5b50600436106100f55760003560e01c806370a082311161009757806395d89b411161006657806395d89b4114610260578063a9059cbb1461027e578063dd62ed3e146102ae578063f2fde38b146102de576100f5565b806370a08231146101ec578063715018a61461021c57806379cc6790146102265780638da5cb5b14610242576100f5565b806323b872dd116100d357806323b872dd14610166578063313ce5671461019657806340c10f19146101b457806342966c68146101d0576100f5565b806306fdde03146100fa578063095ea7b31461011857806318160ddd14610148575b600080fd5b6101026102fa565b60405161010f9190610fc4565b60405180910390f35b610132600480360381019061012d919061107f565b61038c565b60405161013f91906110da565b60405180910390f35b6101506103af565b60405161015d9190611104565b60405180910390f35b610180600480360381019061017b919061111f565b6103b9565b60405161018d91906110da565b60405180910390f35b61019e6103e8565b6040516101ab919061118e565b60405180910390f35b6101ce60048036038101906101c9919061107f565b6103f1565b005b6101ea60048036038101906101e591906111a9565b61046b565b005b610206600480360381019061020191906111d6565b61047f565b6040516102139190611104565b60405180910390f35b6102246104c7565b005b610240600480360381019061023b919061107f565b6104db565b005b61024a610555565b6040516102579190611212565b60405180910390f35b61026861057f565b6040516102759190610fc4565b60405180910390f35b6102986004803603810190610293919061107f565b610611565b6040516102a591906110da565b60405180910390f35b6102c860048036038101906102c3919061122d565b610634565b6040516102d59190611104565b60405180910390f35b6102f860048036038101906102f391906111d6565b6106bb565b005b6060600380546103099061129c565b80601f01602080910402602001604051908101604052809291908181526020018280546103359061129c565b80156103825780601f1061035757610100808354040283529160200191610382565b820191906000526020600020905b81548152906001019060200180831161036557829003601f168201915b5050505050905090565b600080610397610741565b90506103a4818585610749565b600191505092915050565b6000600254905090565b6000806103c4610741565b90506103d185828561075b565b6103dc8585856107f0565b60019150509392505050565b60006012905090565b61040567f22fbcfd04b2bd2460c01b6108e4565b61040d6108e7565b61042167379aa727717dc8d560c01b6108e4565b61043567fd656a0d4662cc7460c01b6108e4565b610449670667b5cb821688d160c01b6108e4565b61045d67a2b9a80e58ab254560c01b6108e4565b610467828261096e565b5050565b61047c610476610741565b826109f0565b50565b60008060008373ffffffffffffffffffffffffffffffffffffffff1673ffffffffffffffffffffffffffffffffffffffff168152602001908152602001600020549050919050565b6104cf6108e7565b6104d96000610a72565b565b6104ef67eba3223e059ed93f60c01b6108e4565b6104f76108e7565b61050b67d3eff84e78c5f6c960c01b6108e4565b61051f67abb1be76594e0a9e60c01b6108e4565b610533679c98e1c15690b0f160c01b6108e4565b61054767ea0aa67c8d8465c760c01b6108e4565b61055182826109f0565b5050565b6000600560009054906101000a900473ffffffffffffffffffffffffffffffffffffffff16905090565b60606004805461058e9061129c565b80601f01602080910402602001604051908101604052809291908181526020018280546105ba9061129c565b80156106075780601f106105dc57610100808354040283529160200191610607565b820191906000526020600020905b8154815290600101906020018083116105ea57829003601f168201915b5050505050905090565b60008061061c610741565b90506106298185856107f0565b600191505092915050565b6000600160008473ffffffffffffffffffffffffffffffffffffffff1673ffffffffffffffffffffffffffffffffffffffff16815260200190815260200160002060008373ffffffffffffffffffffffffffffffffffffffff1673ffffffffffffffffffffffffffffffffffffffff16815260200190815260200160002054905092915050565b6106c36108e7565b600073ffffffffffffffffffffffffffffffffffffffff168173ffffffffffffffffffffffffffffffffffffffff16036107355760006040517f1e4fbdf700000000000000000000000000000000000000000000000000000000815260040161072c9190611212565b60405180910390fd5b61073e81610a72565b50565b600033905090565b6107568383836001610b38565b505050565b60006107678484610634565b90507fffffffffffffffffffffffffffffffffffffffffffffffffffffffffffffffff8110156107ea57818110156107da578281836040517ffb8f41b20000000000000000000000000000000000000000000000000000000081526004016107d1939291906112cd565b60405180910390fd5b6107e984848484036000610b38565b5b50505050565b600073ffffffffffffffffffffffffffffffffffffffff168373ffffffffffffffffffffffffffffffffffffffff16036108625760006040517f96c6fd1e0000000000000000000000000000000000000000000000000000000081526004016108599190611212565b60405180910390fd5b600073ffffffffffffffffffffffffffffffffffffffff168273ffffffffffffffffffffffffffffffffffffffff16036108d45760006040517fec442f050000000000000000000000000000000000000000000000000000000081526004016108cb9190611212565b60405180910390fd5b6108df838383610d0f565b505050565b50565b6108ef610741565b73ffffffffffffffffffffffffffffffffffffffff1661090d610555565b73ffffffffffffffffffffffffffffffffffffffff161461096c57610930610741565b6040517f118cdaa70000000000000000000000000000000000000000000000000000000081526004016109639190611212565b60405180910390fd5b565b600073ffffffffffffffffffffffffffffffffffffffff168273ffffffffffffffffffffffffffffffffffffffff16036109e05760006040517fec442f050000000000000000000000000000000000000000000000000000000081526004016109d79190611212565b60405180910390fd5b6109ec60008383610d0f565b5050565b600073ffffffffffffffffffffffffffffffffffffffff168273ffffffffffffffffffffffffffffffffffffffff1603610a625760006040517f96c6fd1e000000000000000000000000000000000000000000000000000000008152600401610a599190611212565b60405180910390fd5b610a6e82600083610d0f565b5050565b6000600560009054906101000a900473ffffffffffffffffffffffffffffffffffffffff16905081600560006101000a81548173ffffffffffffffffffffffffffffffffffffffff021916908373ffffffffffffffffffffffffffffffffffffffff1602179055508173ffffffffffffffffffffffffffffffffffffffff168173ffffffffffffffffffffffffffffffffffffffff167f8be0079c531659141344cd1fd0a4f28419497f9722a3daafe3b4186f6b6457e060405160405180910390a35050565b600073ffffffffffffffffffffffffffffffffffffffff168473ffffffffffffffffffffffffffffffffffffffff1603610baa5760006040517fe602df05000000000000000000000000000000000000000000000000000000008152600401610ba19190611212565b60405180910390fd5b600073ffffffffffffffffffffffffffffffffffffffff168373ffffffffffffffffffffffffffffffffffffffff1603610c1c5760006040517f94280d62000000000000000000000000000000000000000000000000000000008152600401610c139190611212565b60405180910390fd5b81600160008673ffffffffffffffffffffffffffffffffffffffff1673ffffffffffffffffffffffffffffffffffffffff16815260200190815260200160002060008573ffffffffffffffffffffffffffffffffffffffff1673ffffffffffffffffffffffffffffffffffffffff168152602001908152602001600020819055508015610d09578273ffffffffffffffffffffffffffffffffffffffff168473ffffffffffffffffffffffffffffffffffffffff167f8c5be1e5ebec7d5bd14f71427d1e84f3dd0314c0f7b2291e5b200ac8c7c3b92584604051610d009190611104565b60405180910390a35b50505050565b600073ffffffffffffffffffffffffffffffffffffffff168373ffffffffffffffffffffffffffffffffffffffff1603610d61578060026000828254610d559190611333565b92505081905550610e34565b60008060008573ffffffffffffffffffffffffffffffffffffffff1673ffffffffffffffffffffffffffffffffffffffff16815260200190815260200160002054905081811015610ded578381836040517fe450d38c000000000000000000000000000000000000000000000000000000008152600401610de4939291906112cd565b60405180910390fd5b8181036000808673ffffffffffffffffffffffffffffffffffffffff1673ffffffffffffffffffffffffffffffffffffffff16815260200190815260200160002081905550505b600073ffffffffffffffffffffffffffffffffffffffff168273ffffffffffffffffffffffffffffffffffffffff1603610e7d5780600260008282540392505081905550610eca565b806000808473ffffffffffffffffffffffffffffffffffffffff1673ffffffffffffffffffffffffffffffffffffffff168152602001908152602001600020600082825401925050819055505b8173ffffffffffffffffffffffffffffffffffffffff168373ffffffffffffffffffffffffffffffffffffffff167fddf252ad1be2c89b69c2b068fc378daa952ba7f163c4a11628f55a4df523b3ef83604051610f279190611104565b60405180910390a3505050565b600081519050919050565b600082825260208201905092915050565b60005b83811015610f6e578082015181840152602081019050610f53565b60008484015250505050565b6000601f19601f8301169050919050565b6000610f9682610f34565b610fa08185610f3f565b9350610fb0818560208601610f50565b610fb981610f7a565b840191505092915050565b60006020820190508181036000830152610fde8184610f8b565b905092915050565b600080fd5b600073ffffffffffffffffffffffffffffffffffffffff82169050919050565b600061101682610feb565b9050919050565b6110268161100b565b811461103157600080fd5b50565b6000813590506110438161101d565b92915050565b6000819050919050565b61105c81611049565b811461106757600080fd5b50565b60008135905061107981611053565b92915050565b6000806040838503121561109657611095610fe6565b5b60006110a485828601611034565b92505060206110b58582860161106a565b9150509250929050565b60008115159050919050565b6110d4816110bf565b82525050565b60006020820190506110ef60008301846110cb565b92915050565b6110fe81611049565b82525050565b600060208201905061111960008301846110f5565b92915050565b60008060006060848603121561113857611137610fe6565b5b600061114686828701611034565b935050602061115786828701611034565b92505060406111688682870161106a565b9150509250925092565b600060ff82169050919050565b61118881611172565b82525050565b60006020820190506111a3600083018461117f565b92915050565b6000602082840312156111bf576111be610fe6565b5b60006111cd8482850161106a565b91505092915050565b6000602082840312156111ec576111eb610fe6565b5b60006111fa84828501611034565b91505092915050565b61120c8161100b565b82525050565b60006020820190506112276000830184611203565b92915050565b6000806040838503121561124457611243610fe6565b5b600061125285828601611034565b925050602061126385828601611034565b9150509250929050565b7f4e487b7100000000000000000000000000000000000000000000000000000000600052602260045260246000fd5b600060028204905060018216806112b457607f821691505b6020821081036112c7576112c661126d565b5b50919050565b60006060820190506112e26000830186611203565b6112ef60208301856110f5565b6112fc60408301846110f5565b949350505050565b7f4e487b7100000000000000000000000000000000000000000000000000000000600052601160045260246000fd5b600061133e82611049565b915061134983611049565b925082820190508082111561136157611360611304565b5b9291505056fea26469706673582212202d7fc3ab817e824d92057659000e02de9a86d2098315455a0b0c2db0dd1d766564736f6c634300081c0033",
  "linkReferences": {},
  "deployedLinkReferences": {}
}